:100000006AC100009CC100009AC100000C94A810B5
:1000100096C1000094C100000C948A100C940A113F
:100020008EC100008CC100008AC1000088C10000A0
:1000300086C100000C94CF1082C1000080C1000076
:100040007EC100007CC100007AC1000078C10000C0
:1000500076C1000074C1000072C1000070C10000D0
:100060006EC100006CC100006AC1000068C10000E0
:1000700066C1000064C1000062C1000009020406FC
:100080000B0D0F1118090103050B0D0F16180A02AD
:1000900004060B0D0F11161A080B0D0F1116181A66
:1000A0000803050C0E101719080204060D0F171986
:1000B0000A0204060C0E1016181A0A02060B0D0F7F
:1000C0001116181A090204060D0F16181A0B000152
:1000D000020A0C141516202A0E0001020A0C14152F
:1000E000161E2028292A080001020C16202A0B00BF
:1000F0000A1415161E2028292A0C0001020A1415BC
:10010000162028292A0A00020A0C141516202A0C87
:100110000001020C1415162028292A05010A0B14C7
:100120000500010B0C05010A0B0C05010A0B150556
:100130000001020B05010B0C150500010A0B05025D
:100140000A0B0C0500010B15050001020A09000A43
:10015000141E2832505A3C4609000A141E284650E4
:100160005A323C09000A14323C46505A1E280900F3
:100170000A28323C46505A141E09000A141E3C46F6
:10018000505A28320C0001020C1415161E28292A78
:1001900006020C16202A04000102190B0C0D0E0F8A
:1001A00010111215161718191A1B1C1F20212223B3
:1001B000242526050B00010205010A0B0C000A1478
:1001C0001E28323C46505A09131D27313B454F59D2
:1001D000630A0001020A1415161E280D0001020A06
:1001E0000C14161E2028292A0B00010A0C14151EB7
:1001F00020282909010A0C14161E20290C00020AC5
:100200000C14161E2028292A0C00020A0B0C1416A6
:100210001E20282A0B00010A0C14161E202829096A
:1002200000010A0C14151E280801020A15202829AD
:10023000DB01900184010F010501F900EE00E600E9
:10024000D800CD0006000B161F2806020B141F2A2B
:1002500004000A140400010209131D27313B454F15
:100260005963000A141E28323C46505A05000A14ED
:10027000150B00010A0C14151E20282A08000A1468
:100280001E28292A0801020A141E292A0501151F01
:10029000290C00020A0C1415161E20282A0C000234
:1002A0000A0C14161E1F20282A0C0001020A14151D
:1002B000161E28292A0C0001020A0C14161E2028DA
:1002C0002A79016E01630158014D01C2017D00B41C
:1002D00000DC0000171C11241FBECFEFCDBFDFE3F1
:1002E000DEBF8091400080934000811105C098EDF1
:1002F00021E094BF209341008CBB1AE3A0E0B8E357
:10030000ECE6FBE302C005900D92A632B107D9F7E7
:100310002BE3A6E2BAE301C01D92AD39B207E1F7C3
:1003200011E0CBE6D1E004C02197FE010E94821DBE
:10033000CA36D107C9F70E9452110C948F1D60CEA6
:10034000E0918A3BF0918B3B8E179F0798F5309197
:100350008F3B332361F0639FB0011124672F349FDB
:10036000A0011124452F329F90011124232F309199
:10037000953BE091903BF091913B5091923B35132E
:100380001AC0DC01AA0FBB1F8A0F9B1F8E0F9F1F75
:10039000E091923BE80FF92FF11D6083E091933BD0
:1003A000E80FF92FF11D40833091943B830F911D8D
:1003B000FC0120830895880F991F880F991F8E0FC5
:1003C0009F1FFC01E30FF11D1082E2CF1F93CF931B
:1003D000DF9311E0180F20918F3B1217A9F1C09104
:1003E000903BD091913B215070E060E061F08F3FF5
:1003F000F9F430E050E040E06FEF7FEF80E090E014
:100400000E94F21CB901FE0140918C3B50918D3B42
:10041000CF018C1B9D0B84179507A0F4DF014D9134
:10042000469FC001479F900D11249083FD01ECCFA2
:10043000812F90E0982F88270197622F70E00E940B
:100440005B1DE1CF10938F3BDF91CF911F910895FA
:10045000CF93DF93CDB7DEB72797CDBFDEBFF8943C
:1004600080918C3B90918D3B89839A83A091903BA6
:10047000B091913BFD0131968C918F831B82A091AD
:100480009A3BB0919B3B9C9180919C3B982B9E8387
:100490009C91809589238D838D818C838F8187FFAB
:1004A00002C08E818C835E816D814F813C812B8166
:1004B00089819A815C93262F3C9300C046FD252FAD
:1004C0006C9300C05C93362F2C9300C045FD352FF4
:1004D0006C9300C05C93262F3C9300C044FD252FF5
:1004E0006C9300C05C93362F2C9300C043FD352FD6
:1004F0006C9300C05C93262F3C9300C042FD252FD7
:100500006C9300C05C93362F2C9300C041FD352FB7
:100510006C9300C05C93262F3C9300C040FD252FB8
:100520006C9301975C93362F2C93419147FD352FA7
:100530006C9301F64F833C832B8389839A83789451
:100540002796CDBFDEBFDF91CF9108950F931F9304
:100550004FB7F89420914801309149018091653B53
:100560009091663BB0E0A0E05091430150FF05C080
:1005700037FD03C00196A11DB11D4FBFDC019927B6
:100580008827820F931FA11DB11D8C019D0155E08D
:1005900036952795179507955A95D1F7AC01BD016A
:1005A000E7E07695679557954795EA95D1F7840FDB
:1005B000951FA61FB71FBC01CD01601B710B820BDD
:1005C000930B1F910F9108958F929F92AF92BF92BC
:1005D000CF92DF92EF92FF926B017C01B7DF4B016C
:1005E0005C01B4DF681979098A099B096C157D05DE
:1005F0008E059F05B0F3FF90EF90DF90CF90BF90F6
:10060000AF909F908F9008952091883B3091893BC7
:1006100023703327AC01440F551F440F551F242B63
:10062000352B2093883B3093893B8093863B909376
:10063000873B0895623009F0E7CF2091883B3091E5
:10064000893B21703327AC01440F551F242B352BD8
:100650002093883B3093893B8093863B9093873BE4
:100660000895FF920F931F93CF93DF93C82F162FF8
:10067000F42E022F9091080495FB992790F981E0C0
:1006800098278091080486FD5CC082E0982BE09159
:10069000833B9E17B1F084E0E802F0011124E92BBE
:1006A000E45AF44480812091883B3091893B280FA3
:1006B000311D87FD3A952093883B3093893B909379
:1006C000833B023009F43FC09330A9F48091883B0A
:1006D0009091893B95958795959587958093863BD5
:1006E0009093873B33DF60937F3B7093803B809395
:1006F000813B9093823B2091863B3091873B2093B6
:10070000843B3093853BD0E0FF2041F1812F90E086
:10071000602F2C173D0724F08217930754F4CE0165
:1007200089DF8091863B9091873B8093843B9093B7
:10073000853B8091843BDF91CF911F910F91FF907A
:10074000089580E0A3CF992311F09330A1F6809112
:10075000883B9091893B95958795C0CF2C173D0795
:1007600044F4602FCE0166DFC093843BD093853B79
:10077000E0CFC12FD0E0C217D307DCF6F2CF8091D3
:100780006D3B823089F018F4813031F00895833068
:1007900089F08430B9F0089580E580936A3B109227
:1007A0006B3B10926C3B089510926A3B80E58093FE
:1007B0006B3BF7CF10926A3B10926B3B80E58093C6
:1007C0006C3B089580E580936A3B80936B3BF7CF49
:1007D000AF92BF92CF92DF92EF92FF920F931F934F
:1007E000CF93DF936B01B42EA22EFB011491D0E0C6
:1007F000C0E0E82EF12CC11778F4CC2359F0F601B3
:10080000EC0FFD1F8491202F4A2D6B2D8E0D9F2DF7
:10081000911D96DD2196EFCFDF91CF911F910F9122
:10082000FF90EF90DF90CF90BF90AF900895CF9260
:10083000DF92EF92FF920F931F93CF93DF93D82F06
:10084000C62FE0906C3BF0906B3B10916A3B6A3096
:1008500090F5811129C0D12CC12C20E040E060E04E
:10086000C6016EDD8FEFC81AD80A8DE0C816D10414
:10087000A1F7EC2FF0E0EE0FFF1FE05DFD4F65915B
:1008800074916093713B7093723B0E2D2F2D412F0D
:1008900084E08D0F9DDFDF91CF911F910F91FF902D
:1008A000EF90DF90CF9008950E2D2F2D412F6BEDFF
:1008B00071E08EDFDECF862F6AE00E944F1DC92FC8
:1008C000E82FF0E0EE0FFF1FE05DFD4F65917491A2
:1008D0000E2D2F2D412F8D2F7BDFEC2FF0E0EE0F13
:1008E000FF1FE05DFD4F659174916093713B7093C4
:1008F000723BCCCF0F93CF93DF9324E620936A3BD8
:1009000010926B3B10926C3B883E23E0920748F5B7
:10091000EC018436910518F4682F85E388DFCE0159
:100920008456910984389340E0F4CE0164E670E087
:100930000E945B1DC82FFB01EE0FFF1FE05DFD4F06
:10094000659174916093713B7093723B00E020E07D
:1009500044E682E33DDF6C2F85E3DF91CF910F9179
:1009600066CFDF91CF910F910895BF92CF92DF9222
:10097000EF92FF920F931F93CF93DF93B82EC62F62
:10098000D42F680179018091080481FD28C0662375
:1009900031F1DCDD0091333A1091343A2091353A4F
:1009A0003091363A601B710B820B930BC616D7063B
:1009B000E806F906A0F4CADD6093333A7093343A3E
:1009C0008093353A9093363A8C2FDF91CF911F91D7
:1009D0000F91FF90EF90DF90CF90BF90089580919E
:1009E000080481FF09C0B2DD6093333A7093343A52
:1009F0008093353A9093363A8091080482FF17C06D
:100A00008091080482FF09C0A1DD60932F3A7093A2
:100A1000303A8093313A9093323A8091080483FFC0
:100A200025C08091080483FD40C0C0E0CDCFBB202D
:100A300039F38CDD00912F3A1091303A2091313A00
:100A40003091323A601B710B820B930BC616D7069E
:100A5000E806F906A8F67ADD60932F3A7093303AEB
:100A60008093313A9093323ACB2DAECFDD23C9F249
:100A70006DDD00912B3A10912C3A20912D3A309156
:100A80002E3A601B710B820B930BC616D706E80635
:100A9000F90638F65BDD60932B3A70932C3A80931D
:100AA0002D3A90932E3ACD2F8FCF50DD60932B3A75
:100AB00070932C3A80932D3A90932E3AB6CF92E0D1
:100AC000811116C0909326049091200491FD0AC0D4
:100AD0009FB7F89481110FC080913104877F809374
:100AE00031049FBF8091010A8D7F8093010A089590
:100AF00090932504E9CF809131048860F0CFCF92A4
:100B0000DF92EF92FF920F931F93CF93DF93209189
:100B10006F3B2223E9F06B017C0110E000E081E0F3
:100B2000CEDFD0E0C0E0CC16DD0619F00000219643
:100B3000FACF80E0C4DF90E080E0C817D90719F051
:100B400000000196FACF0F5F1F4FE016F1063CF749
:100B5000DF91CF911F910F91FF90EF90DF90CF9099
:100B60000895EAE8FBE34281538170E060E086810A
:100B700097810C94881D03DE9091673B80911F3A0A
:100B8000981769F08091673B80931F3AEADF609184
:100B9000673B85E34CDE6091683B80E048CE08957A
:100BA000CF92DF92EF92FF92CF93DF938091A100DB
:100BB0008D7F8093A100809102068F7C8065809359
:100BC000020680E48093A00080910006882371F0E3
:100BD0008DE18093060681E08093080680910B06E4
:100BE00080FFFCCF80911006909111068091000645
:100BF00029EF32E8882371F08DE18093060681E0C9
:100C00008093080680910B0680FFFCCF2091100690
:100C10003091110650E040E064E27AE687E190E02E
:100C20000E941E1D44275527245A3B404109510963
:100C3000A9E0B0E00E940E1D2EED33E040E050E050
:100C40000E94F21C6901E9012093373A3093383A47
:100C50002630310534F020E044E660E089E090E0A1
:100C60006FDB83E0C81AD10820E044E683E0C816B1
:100C7000D10420F0239764F420E040E064E689E0AA
:100C800090E0DF91CF91FF90EF90DF90CF9058CB25
:100C9000DF91CF91FF90EF90DF90CF9008952F924A
:100CA0003F924F925F926F927F928F929F92AF92FC
:100CB000BF92CF92DF92EF92FF920F931F93CF9349
:100CC000DF93CDB7DEB72A97CDBFDEBF8F8398877E
:100CD0006C834D832E8310E000E08091080482FF36
:100CE00054C18091080481FF50C128E532E0298772
:100CF0003A87EF80F884E00EF11EE985FA85849149
:100D0000F701208190E0213009F090C02E814D81C3
:100D10006C8116DB29853A852F5F3F4F29873A87FB
:100D200039E0E30EF11C89859A858D55924029F7AB
:100D300066E970E080E090E047DC19861A868091D1
:100D40008A3B90918B3B29853A85812C912C5401CB
:100D50002817390708F0FBC04091953BE091923B82
:100D6000C0908F3B6090903B7090913B8091933B03
:100D700090E02091943B30E0242E312C49845A8419
:100D80004E1363C0440C551C49855A85440D551DAE
:100D9000460D571DFA01E20DF31D7081840F951F5A
:100DA000FC013080240F351FF9012080CC2009F48C
:100DB00041C0D12CF12CE12C672F70E0762F6627F3
:100DC000072E000C880B990BA70196010E941E1D8F
:100DD000590199248824632D70E0762F6627072E09
:100DE000000C880B990BA70196010E941E1D542F21
:100DF000432F322F2227822A932AA42AB52A622D32
:100E000070E0762F6627072E000C880B990BA70140
:100E100096010E941E1D822A932AA42AB52A89853A
:100E20009A85480E591E460C571C7FC020E040E0B2
:100E300060E06FCF832C912CB12CA12CBA2CA92C63
:100E4000982C8824A72A8228EACF440C551C440CED
:100E5000551CA301440D551DDA01A20DB31D7C9153
:100E6000E40FF52FF11D60816B83840F951FFC014A
:100E7000F081F983240F351FF901F081FA83CC202A
:100E800009F499C0D12CF12CE12C672F70E0762F5A
:100E90006627072E000C880B990BA70196010E946C
:100EA0001E1DB22EAA24992488242B81622F70E063
:100EB000762F6627072E000C880B990BA701960149
:100EC0000E941E1DA90133272227822A932AA42AC1
:100ED000B52A3A81632F70E0762F6627072E000C23
:100EE000880B990BA70196010E941E1D822A932A46
:100EF000A42AB52A8981682F70E0762F6627072EED
:100F0000000C880B990BA70196010E941E1D542FFF
:100F1000432F322F2227822A932AA42AB52A460C4D
:100F2000571CF201E20DF31D1082E091923BE40D9B
:100F3000F52DF11D1082E091933BE40DF52DF11D8F
:100F400010828091943B480E511CF2011082F98569
:100F5000FF2359F089288A288B2839F02E814D816A
:100F60006C8189859A850197EBD929853A852F5F10
:100F70003F4F29873A872233310509F0E0CE0F5FD2
:100F80001F4F0930110509F0A8CE2A96CDBFDEBF4C
:100F9000DF91CF911F910F91FF90EF90DF90CF9055
:100FA000BF90AF909F908F907F906F905F904F9089
:100FB0003F902F9008959B81892E912CB12CA12CCC
:100FC000540199248824B72AEA818E2AF9819F2A1C
:100FD000A6CFC7DD8091080481FFFCCF8091080473
:100FE00082FFF8CF84E680936A3B10926B3B1092AD
:100FF0006C3B60915A3883E31ADC24E640E060E001
:101000008DE298E34CDE24E640E060E080E098E387
:1010100046DEA7CD1F93CF93DF93162F672FC82FE0
:10102000D0E0CE010E94DE1C612FCE010196DF913F
:10103000CF911F910C94DE1C0F931F93CF93DF93DE
:1010400090DD80916F3B90E0DFDA8091080483FFB0
:10105000FCCFC0E001C0C2E00CE211E020E030E0D3
:1010600040E061E080E081DC882329F0CF5FC3307D
:1010700009F4C0E076DD0CE211E020E030E040E071
:1010800060E081E072DC882341F1C15028F569DD20
:1010900000E020E044E669EA72E084E199DB20E0C8
:1010A00044E665EB72E087E193DB20E044E664E12F
:1010B00072E08AE18DDB02E310E020E030E041E005
:1010C00060E080E052DC882309F4C5CF81E08093A2
:1010D000773B10921E3A6DC044DDC13009F44BC01D
:1010E000C230B1F221E041E061E080E0BADAD82F0D
:1010F00000E020E044E668E272E080E069DB20E0A6
:1011000044E665EB72E083E063DB20E044E664E103
:1011100072E086E05DDBC0916F3BCC23C9F020E03C
:1011200044E663EF71E082E353DB20E044E665EBE5
:1011300072E085E34DDBCD1709F48BCF12DD61E062
:101140006C2760936F3B86E090E00E94DE1C81CFAD
:1011500000E020E044E663EF71E082E339DB20E069
:1011600044E661ED71E085E333DB20E044E661EDC8
:1011700071E088E3DFCF00E020E044E661E772E061
:1011800084E126DB20E044E669EA72E087E120DBC7
:1011900020E044E668E272E08AE11ADB02E310E054
:1011A00020E030E041E060E080E0DFDB882309F40C
:1011B00053CFDF91CF911F910F91D3CC0F931F93FA
:1011C000CF93082F10E0C8010E94D61CC82FC80179
:1011D00001960E94D61C2C2F30E0322F2227820F3E
:1011E000932F911DCF911F910F9108952F923F92B0
:1011F0004F925F926F927F928F929F92AF92BF9227
:10120000CF92DF92EF92FF920F931F93CF93DF93D2
:10121000CDB7DEB76897CDBFDEBF2DB73EB72F8BFA
:10122000388FE0912A3AF0E0EE0FFF1FEE5DF444B4
:101230000190F081E02D849181508F8390E09C019A
:10124000220F331F4DB75EB7421B530B4DBF5EBF1E
:10125000ADB7BEB71196A88BB98B2DB73EB7281B7B
:10126000390B2DBF3EBF8DB79EB7019624E6ADB7B3
:10127000BEB711962C938A8B9C8BBC012889398927
:1012800043E63196862FBA898B1B5F81851750F410
:10129000849190E0D9018D939D939D01DB014D9345
:1012A000BD01EFCFBF81BA83E1E0EF87412C1B8204
:1012B0004AE0242E312C59E0E52EF12C712C612CC2
:1012C000B12CA12C19861A861D821E826AE5562E23
:1012D00018861C82F3E6F9831E862AE02B8B65C1F3
:1012E00022E040E067E580E5BCD9982EBE85B817BE
:1012F00039F000E020E040E068EB71E08B2F68DA25
:1013000080915B3800E024E640E0823008F444E657
:1013100068EB71E0892D5CDA00E010E0980140E0B4
:1013200061E081E022DB182F8823D1F0411011C049
:1013300068E270E088E290E0E2DBE1E0E90DE98359
:10134000E03538F424E640E060E08E2F90E00E9423
:10135000A001412E36E96316710408F480C008C06C
:10136000F6E96F16710408F47AC0442009F477C0D6
:1013700020E040E060E03981832F90E00E94A001EE
:101380004981412C4A3020F04A50498344244394F7
:101390000A891C8968887988812C5981C52ED12CAD
:1013A0008F81881628F5D3018D919D913D01820D85
:1013B000931D8C159D05C1F4F80180818815A1F05D
:1013C0008082FA81F150FA838091283A9091293AEB
:1013D00001968093283A9093293A20E040E060E01B
:1013E000C6010E94A001412C83940F5F1F4FD8CFEC
:1013F000EC14FD0429F0C70101968C159D0511F52B
:1014000082E080935B388091283A9091293A039644
:101410008093283A9093293A10E000E020E040E0E1
:1014200060E0C8010E94A0010F5F1F4F0930110545
:10143000A9F766E970E082E390E061DB1B8239E0A6
:10144000E32EF12C442009F43FC124E640E060E0A3
:101450003981832F90E00E94A001712C612C898535
:101460009A858A3F9105C0F09C819F34A8F4A3E639
:10147000A51590F020E040E060E0852D90E00E940E
:10148000A001BAE05B0E20E046E464E6852D90E022
:101490000E94A00119861A86591409F419C1252D34
:1014A00030E0892D90E0AC014F5F5F4F2417350786
:1014B00009F40EC102962817390709F409C1EC8115
:1014C000E03508F008C10E94811C20ED37E040E0C3
:1014D00050E00E94F21C643F71408105910509F4BF
:1014E00065C258ECA516B10490F08B81882379F081
:1014F000F7FE38C120E040E060E0C70101960E949D
:10150000A0011B8299E0E92EF12CB12CA12CBA810B
:10151000B43060F4EB2FF0E0EE0FFF1FE553FD4F0A
:10152000859194918093733B9093743B8091733B2E
:101530009091743BED81FE818E179F07D0F42B8A2A
:10154000F885FF5FF88769E170E089E190E0D7DA1C
:101550002F85222309F421C13FEF231A330A58852E
:10156000563109F01EC18AE0280E311C1D821E82F0
:10157000188608EC10E020E030E041E060E080E018
:10158000F4D9811159DD8091773B81110DC1809192
:10159000283A9091293A883E934030F0E7EEF3E004
:1015A000E093283AF093293A9E8680915B383A81FD
:1015B000332309F4F9C0882309F4F6C08091703B05
:1015C0008823C1F08091703B4D815E81480F511D91
:1015D0004D835E838091703BA985BA85A80FB11DAC
:1015E000A987BA878091703BA80EB11C8091703B8F
:1015F000680E711C88889988BA89BC87EC89ED8748
:101600001B863B89232F30E02D8B3E8B4B855F81E2
:10161000451708F065CEAC85BD858D91AC87BD873B
:10162000841709F44AC0F401008111812D893E8993
:101630002215330549F020E040E060E08D899E8965
:10164000800F911F0E94A0016101C00ED11E20E0F9
:1016500040E064E6C6010E94A00190E080E0FC0149
:10166000E953FE4FE491EC151D0409F41F86FC01BB
:10167000E354FE4FE491EC151D0411F431E03F8773
:1016800001968930910559F70E94811C2CE231E0C6
:1016900040E050E00E94F21C663971058105910519
:1016A00029F443E6451510F4502E520C5C815C156C
:1016B0001D041CF4802F820D8C839B859F5F9B876C
:1016C000A2E08A0E911CA2CF41E0490D4983C5CE0C
:1016D000FC81F035B8F010925B3820E040E060E02B
:1016E000852D90E00E94A00180915B38D12CC12C07
:1016F000882371F066E970E082E390E000DA24E686
:10170000522EE1CE80915B38815080935B38E5CFDB
:10171000B60184E690E0F3D900E020E040E068EB19
:1017200071E0892D55D824E640E063EB71E0892D06
:101730004FD8B60184E690E0E2D920E040E063EBC8
:1017400071E0892D45D824E644E668EB71E0892DE7
:101750003FD824E6C20ED11C38E5C31632E0D306CA
:10176000B9F6CDCF87010150110926E440E066E4C7
:10177000C8010E94A001083011055CF420E040E09F
:1017800060E0C70101960E94A001780191E09B836F
:10179000BCCE7801A1E0AB83B8CE41E0241A310879
:1017A000DECE1D821E82E5CEDCD90E94A6026093A9
:1017B000793B70937A3B80937B3B90937C3BFA819F
:1017C000F1111DC080915A388F5F80935A389091E3
:1017D0002A3A9F5F993008F0AAC090932A3AEBEC1E
:1017E000F2E08F3008F0A6C0259134914FE0849F3D
:1017F0002019310911242093733B3093743B80915D
:101800005B3881118DC0EBECF2E08591949180936F
:10181000733B9093743B10922A3A82E080935B383A
:1018200081E080935A388091283A9091293A883EF5
:10183000934030F0E7EEF3E0E093283AF093293A52
:1018400085E0BCDCE090283AF090293A00E020E006
:1018500044E68E159F0508F098C065EB72E080E0C5
:101860000E94E80320E044E669EA72E083E00E9417
:10187000E80320E044E66DE972E086E00E94E803B8
:10188000C70138D8B70185E0C5DB04E610E020E0E9
:1018900030E040E061E081E068D881113DC000EDBA
:1018A00017E020E030E041E060E05FD88823D9F025
:1018B00058D970E060E085E0ADDB00E020E044E670
:1018C00064E872E080E00E94E80320E044E66CE710
:1018D00072E083E00E94E80320E044E661E772E002
:1018E00086E00E94E8030E94A6020091793B1091D5
:1018F0007A3B20917B3B30917C3B601B710B820BD0
:10190000930B613375478105910508F4BECF1092A2
:101910001E3A21E02093773B1092283A1092293A00
:1019200080911E3A882309F449C053DB7ACC109287
:101930002A3A55CF259134912A5F31092093733B80
:101940003093743B843608F45ACF00E020E044E63C
:101950006DE972E084E10E94E80320E044E66CE86F
:1019600072E087E10E94E80320E044E665EB72E064
:101970008AE10E94E80360ED77E080E090E00E9459
:10198000E40251E05093773B3ACF61E972E080E0A6
:101990000E94E80320E044E66CE872E083E00E94E5
:1019A000E80385E00BDC0E947A046FCF48ECA416B4
:1019B000B10408F09DCD51E05B83A9CD81E0809317
:1019C0001E3ACFD80E94A6026093793B70937A3B6F
:1019D00080937B3B90937C3B8CE380931F3A8F8971
:1019E000988D8DBF9EBF6896CDBFDEBFDF91CF9132
:1019F0001F910F91FF90EF90DF90CF90BF90AF902D
:101A00009F908F907F906F905F904F903F902F901E
:101A100008952F923F924F925F926F927F928F9292
:101A20009F92AF92BF92CF92DF92EF92FF920F936D
:101A30001F93CF93DF93CDB7DEB7EA97CDBFDEBF5D
:101A4000B0906E3B22E080E0B21201C084E1FE0162
:101A500031967F019E01275E3F4F690101E010E052
:101A6000E82FF0E0E9AFFAAF53E6A52EF801E6560D
:101A7000FE4F8491F60181936F0120E040E064E61F
:101A8000E9ADFAADE80FF11DCF010E94A001F70109
:101A9000A1927F010F5F1F4F0931110539F7209186
:101AA0005A382E3108F030C1F1E0BF1232C144EF94
:101AB000420390011124C901845D9C4F8CAB9DAB06
:101AC00062E08EE590E00E941A03512CAA24A394B0
:101AD000EE24E394312C31E039AB912C812C712C24
:101AE000612CD12CC12C34E5F32E1BAA48E14AAB62
:101AF00010E044E0B42E8091703B882321F0809167
:101B0000703BC80ED11C22E040E061E68AE50E94ED
:101B1000310388AF00E0811709F400C120E040E004
:101B200066E971E0812F0E94E803332011F055200F
:101B3000B9F020E040E060E08F2D90E00E94A0012D
:101B400022E040E061E68AE50E94310327EFF22EB1
:101B5000F80E20E040E560E58F2D90E00E94A001A6
:101B600080916E3B823049F502E310E020E030E0E6
:101B700040E060E081E00E94B504882311F0B110DC
:101B8000BA9402E310E020E030E040E061E080E061
:101B90000E94B504882321F096E09B1508F0B394C9
:101BA000EBA9BE1609F4C2C000E020E040E066E9FF
:101BB00071E08E2F0E94E803BBAA8091080482FF87
:101BC00080C28091080481FD02C051107AC22CA904
:101BD0003DA9C216D30608F45FC0332009F45CC0E7
:101BE00020E040E060E08F2D90E00E94A00139E00D
:101BF0003F1528F486EF49A9841BE11003C08AE051
:101C000099A9891BF80E0F2D10E020E040E560E552
:101C1000C8010E94A001FE0131966F019E01275E5E
:101C20003F4F2901312C0EAB1FABF20181912F01E7
:101C300029AD3AAD280F311DEEA9FFA9E217F30730
:101C400009F086C0F6018081831509F481C03082D5
:101C5000FAA9F150FAAB8091263A9091273A019671
:101C60008093263A9093273A21E0E22666E970E0D5
:101C700082E390E00E947F0520E040E060E0C80140
:101C80000E94A001A12C339438E1331256C03324B2
:101C90003394512CD12CC12C10E000E0AA2019F172
:101CA000F801E953FE4FE491FE1209C062E370E0CF
:101CB00082E390E00E947F05A12C41E049ABF8014E
:101CC000E354FE4FE491FE1209C062E370E082E348
:101CD00090E00E947F05A12C8FEF89AB0F5F1F4F13
:101CE0000A301105D9F699E09F15A8F140906E3B96
:101CF000E1E04E1609F43FC08091263A9091273AD0
:101D0000680E791E412C38C0E8E5F2E0ECABFDAB83
:101D1000D7CE28E532E02CAB3DABD2CE24E640E076
:101D200066E971E0812F0E94E8031ACF04E620E003
:101D300040E066E971E08B2D3DCF3FEFC31AD30A37
:101D4000A11073CF512C33243394D12CC12CCBCF81
:101D5000AA24A39498CFF9E544244394FF1560F492
:101D600080916E3B823071F68091263A9091273AAD
:101D7000880E991EC7CFE12C5110C3C14F2D50E0E2
:101D800028AD822F90E09C012A5031094217530759
:101D900009F0A1C130E5EE24E394F31609F4B4C1CF
:101DA00041E049ABABC190916E3B2B2D30E0265FFB
:101DB0003F4F8AE0923021F0512C29C0511027C0AA
:101DC000512C24173507F1F48A3031F08C3071F042
:101DD000E12C5524539413C0EAE0E12C552453948C
:101DE000F1E0FE1201C0FFEFF9AB09C093E1E12C75
:101DF00055245394F91609F4FAC0EFEFE9AB9AEFC2
:101E0000C92ED12C8F5F2F5F3F4F8D30B9F608EC74
:101E100010E020E030E041E060E080E00E94B504A6
:101E20008823F1F009D98E01075E1F4FFE0131961C
:101E3000EEABFFAB212CEEA9FFA98191EEABFFAB7E
:101E4000821541F0F801808120E040E064E690E0F6
:101E50000E94A00123940F5F1F4FF8E12F12EBCFD8
:101E60008091773B811106C0442021F018AD8AA9EA
:101E7000811141CE0E94B1050E94A6026093793B78
:101E800070937A3B80937B3B90937C3B2AA92111F2
:101E900024C080915A388F5F80935A388436E8F096
:101EA00000E044E66DE972E084E10E94E80320E08E
:101EB00044E66CE872E087E10E94E80320E044E633
:101EC00065EB72E08AE10E94E80360ED77E080E074
:101ED00090E00E94E40210921E3A411003C031E0EB
:101EE00030935A388091263A9091273A883E934011
:101EF00030F087EE93E08093263A9093273A8091D2
:101F00006E3B823009F07DC000E020E044E66FE1E6
:101F100072E080E00E94E80304E620E040E08614DE
:101F2000970408F067C060E971E083E00E94E8036D
:101F3000C3010E947A0468E572E080E090E00E94AC
:101F4000E40204E610E020E030E040E061E081E0FF
:101F50000E94B50481113FC000ED17E020E030E0A1
:101F600041E060E00E94B5048823E1F00E94B105E1
:101F700070E060E08BE04ED800E020E044E664E8EA
:101F800072E080E00E94E80320E044E66CE772E043
:101F900083E00E94E80320E044E661E772E086E027
:101FA0000E94E8030E94A6020091793B10917A3BBF
:101FB00020917B3B30917C3B601B710B820B930B20
:101FC000613375478105910508F4BBCF10921E3A25
:101FD000F1E0F093773B1092263A1092273A8091E5
:101FE0001E3A882309F445C00E94E90729CD91E0F3
:101FF00099AB05CF64E871E083E00E94E803C40177
:1020000098CF8BE0DBD8E090263AF090273A00E0BA
:1020100020E044E68E159F05D8F465EB72E080E081
:102020000E94E80320E044E669EA72E083E00E944F
:10203000E80320E044E66DE972E086E00E94E803F0
:10204000C7010E947A04B7018BE00E940A0879CF89
:1020500061E972E080E00E94E80320E044E66CE879
:1020600072E083E00E94E8038BE0A8D80E947A0423
:1020700068CF81E080931E3A0E94B1050E94A602BB
:102080006093793B70937A3B80937B3B90937C3B4E
:102090008CE380931F3AEA96CDBFDEBFDF91CF91EC
:1020A0001F910F91FF90EF90DF90CF90BF90AF9076
:1020B0009F908F907F906F905F904F903F902F9068
:1020C00008952CA93DA933243394512CC216D3066C
:1020D00008F4E2CD85CD9C01295031094217530700
:1020E000B1F008974817590709F05DCE89E5EE244D
:1020F000E394F81609F454CE9FEF99AB8AEFC82EFB
:10210000D12C5524539483CE3FEF39ABF7CFEE2437
:10211000E394F4CF1F920F920FB60F9211248F9376
:102120009F938091430180FF09C08091653B90910E
:10213000663B01968093653B9093663B83E080937A
:1021400043019F918F910F900FBE0F901F90189594
:102150001F920F920FB60F9211248F938091090452
:1021600083FF17C0809109048870809309048091CF
:1021700050008E7F80935000809113048E7F809357
:102180001304809104048F7E8093040481E0809383
:10219000203A8F910F900FBE0F901F9018951F92AD
:1021A0000F920FB60F9211242F933F934F935F938B
:1021B0006F937F938F939F93AF93BF93EF93FF930F
:1021C0008091903B9091913B892B31F080918E3B97
:1021D0008C3014F40E9428028091703B8823B1F067
:1021E0001092703B81E08093460AFF91EF91BF917E
:1021F000AF919F918F917F916F915F914F913F919F
:102200002F910F900FBE0F901F9018958AE080932A
:10221000703BE8CF1F920F920FB60F9211248F934D
:102220009F9381E08093530180917E3B8F5F8093E9
:102230007E3B80917E3B8C33C0F010927E3B809140
:10224000673B8F5F8093673B8091673B8C3368F07F
:102250001092673B8091683B8F5F8093683B8091D1
:10226000683B883110F01092683B8091203A8111D0
:1022700001C088958091080483FD0DC080910804F9
:1022800081FD09C08091080482FD05C088ED91E0C0
:1022900084BF909341009F918F910F900FBE0F903C
:1022A0001F901895CF93DF93CDB7DEB7C65DD109E8
:1022B000CDBFDEBF81E098ED94BF8093610092E5D1
:1022C000909302069AE09093050690E2909303069D
:1022D000809300068093030A8EEF8093260A8093F2
:1022E000270A8BE08093000A809141018111FCCF85
:1022F0008FEF9FEF80934A0190934B0183E098ED1D
:1023000094BF80937C0092E09093470191E090937A
:10231000420199EA90934001789490E990930004E7
:102320008093200488E080931504809316048091A4
:1023300004048F7E809304048FEF90E00E94D61CEB
:10234000833841F163E88FEF90E00E94DE1C61E08A
:1023500082E090E00E94DE1C62E083E090E00E9458
:10236000DE1C61E084E090E00E94DE1C70E060E032
:1023700085E00E940A0870E060E087E00E940A0899
:1023800070E060E089E00E940A0870E060E08BE0A5
:102390000E940A0882E090E00E94D61C80936D3B68
:1023A00084E090E00E94D61C91E0811101C090E091
:1023B00090936F3B83E090E00E94D61C8093693B32
:1023C000982F990F890F0E94E60181E080935201B6
:1023D00091E7909350018093450A80E49FE18093B8
:1023E0004C0A90934D0A83E08093400A7894809140
:1023F0005000897F8460809350009E012F5F3F4F83
:10240000C753DF4F28833983C95CD0400E94BB0586
:1024100090917E3B80917D3B981731F080917E3B7F
:1024200080937D3B0E94D0050E94A6020091793BDB
:1024300010917A3B20917B3B30917C3B601B710B70
:10244000820B930B613177428105910508F44FC0EF
:102450008091203A882309F44AC08091000669EFF0
:1024600072E8882371F087E08093060681E080930C
:10247000080680910B0680FFFCCF609110067091DA
:102480001106072E000C880B990B6115710581054B
:10249000910511F00E94CD1C0E94A6026093793B29
:1024A00070937A3B80937B3B90937C3B0E94B10579
:1024B0008091903B9091913B892B31F080918E3BA4
:1024C0008C3014F40E9428028CE380931F3A1092FF
:1024D000203A8091040480618093040481E0809319
:1024E0001304809150008160809350008895809102
:1024F000080482FD51C08091080481FD4DC000E9AF
:1025000011E020E030E040E061E081E00E94B504AD
:10251000882309F441C062E085E090E00E941A033C
:1025200080915000897F809350008091080482FF41
:10253000FCCF8091080481FFF8CFE12C5CE3D52E1D
:102540008091080482FF04C08091080481FD67C067
:102550000E94B1058091693B982F990F890F0E94C5
:10256000E60180915000897F8460809350008091C3
:10257000080482FFFCCF8091080481FFF8CF0E94FD
:10258000A6026093793B70937A3B80937B3B909358
:102590007C3B8CE380931F3A00E911E020E030E0BF
:1025A00041E060E080E00E94B504882309F4D3C0D4
:1025B0000E94B10580916D3B90E00E9404038091E0
:1025C000080483FD5BC0E0906C3BF0906B3B109186
:1025D0006A3B0E2D2F2D412F68E072E080E00E94B3
:1025E000E8032F2D412F69EA72E084E00E94E8039E
:1025F0002F2D412F65EB72E084E30E94E8032F2D1D
:10260000412F6CEF71E088E30E94E8036CED75E008
:1026100080E090E00E94E4020E94B105D0CF0E94C9
:10262000D0050E94BB0522E040E069E182E00E9403
:102630003103182F1E1539F0812F0E94E601D09228
:102640001F3AE12EF7CFF0906C3B00916B3B10915D
:102650006A3B2F2D402F612F8DE390E00E94A00157
:102660002F2D402F612F81E590E00E94A0018091E5
:102670005000816080935000889562CFF12C80914A
:10268000080481FD07C0F39445E0F41201C0F12C69
:102690000E94B1058091080482FD08C0FA948FEF72
:1026A000F81202C044E0F42E0E94B10580910804A3
:1026B00081FFFCCF8091080482FFF8CFD0906C3B63
:1026C000E0906B3B10916A3B92E0F91609F42FC140
:1026D0009F150CF4CDC0E1E0FE1609F4F5C0F090B2
:1026E0006D3B0D2D2E2D412F64E872E080E00E949D
:1026F000E8032E2D412F63EF71E084E00E94E80390
:102700006F2D85E30E94170421E041E064E081E041
:102710000E943103182F8F1549F00E94B1051093C4
:102720006D3B153018F081E080936D3B0E94BF0334
:10273000F12C60916D3B82E090E00E94DE1C609184
:10274000693B83E090E00E94DE1C35E0F31297CFF6
:102750008CE380931F3A0CEB12E020E030E040E085
:1027600061E081E00E94B504D82E882309F46AC094
:102770000E94B1050E94B10581E08093783B809171
:10278000080481FD04C08091080482FFF8CF94E022
:10279000E92EF12C2CE3C22E04EF11E020E030E012
:1027A00040E061E080E00E94B504882379F08091E8
:1027B000753B9091763B0196853091050CF0FDC0FC
:1027C0008093753B9093763B0E94B10504EF11E036
:1027D00020E030E040E060E081E00E94B504882322
:1027E00069F08091753B9091763B019797FDEAC027
:1027F0008093753B9093763B0E94B1058091753B29
:102800009091763B8230910509F4A9C10CF0DFC0AC
:10281000009709F422C1019709F465C18D2D9091AB
:10282000080493FF0AC09091080492FD04C090919F
:10283000080491FF02C08111AFCF809116048E7FF2
:10284000809316044091783BC553DF4F4883CB5C9F
:10285000D040442309F4DACD8091773B10E000E0CA
:10286000882309F460C21092773B1092783BEACF3C
:10287000F3E0FF1609F47FC024E0F21230CF0D2DF3
:102880002E2D412F69EA72E084E10E94E8032E2D8B
:10289000412F65EB72E087E10E94E8032E2D412F66
:1028A00064E172E08AE10E94E80302E310E020E0C4
:1028B00030E041E060E080E00E94B504882309F444
:1028C00038CF35E0F32E35CF0D2D2E2D412F68EE6C
:1028D00071E080E00E94E8032E2D412F61E772E055
:1028E00084E00E94E8030091693B602F85E30E9429
:1028F000170421E041E065E081E00E943103182FD8
:10290000081709F416CF0E94B1051093693B1630E1
:1029100010F0F092693B8091693B813021F485E0B1
:102920000E94E60106CF982F990F890FF9CF0D2D40
:102930002E2D412F61E972E080E00E94E8032E2DE8
:10294000412F61E772E084E00E94E8036091683BF8
:1029500085E30E94170421E041E067E180E00E94E6
:1029600031039091683B891709F4E3CE8093683B6B
:102970000E94B105DECE0D2D2E2D412F68E072E0B4
:1029800080E00E94E8032E2D412F6CE872E084E085
:102990000E94E8036091673B85E30E94170421E0F1
:1029A00041E06BE380E00E9431039091673B89171F
:1029B00009F4BFCE8093673BDBCF1092753B10923A
:1029C000763B02CFE092753BF092763B15CF833099
:1029D000910509F400C1049709F020CF00E020E040
:1029E00044E66AE472E082E30E94E80320E044E601
:1029F00064E472E089E30E94E80320E044E669EAC7
:102A000072E080E00E94E80320E044E665EB72E0BB
:102A100083E00E94E80320E044E664E172E086E09F
:102A20000E94E8038091080483FF08C08091080495
:102A300082FDF4CE8091080481FDF0CE1092783BA7
:102A4000C0921F3A0E94A6026093793B70937A3B32
:102A500080937B3B90937C3BE1CE00E020E044E61A
:102A60006AE472E082E30E94E80320E044E664E462
:102A700072E089E30E94E80324E640E060E089E434
:102A800090E00E94A00110E08091080481FFC6CE72
:102A90008091080482FFC2CE1230C9F030F41130A8
:102AA00071F01F5F153081F7B9CE1330B1F01430DB
:102AB000C1F720E044E660E08AE699E305C020E043
:102AC00044E660E081EF99E30E944F06EACF20E000
:102AD00044E660E084EC99E3F7CF20E044E660E070
:102AE00087E999E3F1CF00E020E044E66AE472E090
:102AF00082E30E94E80320E044E664E472E089E3B4
:102B00000E94E80324E640E060E08AE490E00E944E
:102B1000A00110E08091080481FF80CE809108041C
:102B200082FF7CCE123079F0133099F0113039F4F5
:102B300020E040E562E381EF99E30E944F061F5FCA
:102B4000143041F76BCE20E040E562E38DE399E37A
:102B5000F4CF20E040E562E380E199E3EECF00E0CE
:102B600020E044E66AE472E082E30E94E80320E0A9
:102B700044E664E472E089E30E94E80324E640E06E
:102B800060E08BE490E00E94A00110E080910804D6
:102B900081FF44CE8091080482FF40CE123079F04C
:102BA000133099F0113039F422E344E660E083EE0B
:102BB00098E30E944F061F5F143041F72FCE22E3A7
:102BC00044E660E086EB98E3F4CF22E344E660E07D
:102BD00081EF99E3EECF00E020E044E66AE472E0A2
:102BE00082E30E94E80320E044E664E472E089E3C3
:102BF0000E94E80324E640E060E08CE490E00E945C
:102C0000A00110E08091080481FD60C0809108045B
:102C100083FD7EC081E090E00E9404030E94B10524
:102C20008091080481FD04C08091080482FFF8CFE0
:102C30008091080481FD04C08091080482FF71C066
:102C400021E041E062E081E00E943103182FE82F8B
:102C5000F0E0EE0FFF1FE05DFD4F65917491609312
:102C6000713B7093723B04E620E040E082E30E94F7
:102C7000E80300E020E044E668E272E080E00E94C1
:102C8000E80320E044E669EA72E083E00E94E8039A
:102C900020E044E66CE772E087E00E94E80320E071
:102CA00044E66FE172E086E30E94E80380916E3BA8
:102CB000181709F4BDCF0E94B10562E370E082E30A
:102CC00090E00E947F0510936E3BB2CF8091080484
:102CD00082FF9CCF123081F01330A1F0113039F413
:102CE00020E542E360E081EF99E30E944F061F5F19
:102CF000143009F087CF8ACF20E542E360E089E80D
:102D000098E3F3CF20E542E360E08CE598E3EDCF74
:102D10008091080482FD82CD8091080481FD7ECDE2
:102D200079CF80E07CCDB80182E390E00E947F05FE
:102D3000075E1F4F043F81E01807A9F70E94B10505
:102D40008091753B9091763B81309105E9F084F458
:102D5000892B09F077CDEBECF2E08591949180938B
:102D6000733B9093743B0E94E9070E94F6086ACD7A
:102D70008230910509F4A4C3039709F063CD0E9442
:102D8000E9070E94090D5ECDECE6F2E0CC52DF4F80
:102D9000E883F983C45DD040AE014F5F5F4F2AE006
:102DA00090E080E0FC01EE0FFF1FE40FF51F1082A2
:102DB000118201968A309105A9F721504C5E5F4F30
:102DC0002111EECF9E012F5F3F4F6901F12CE12CC5
:102DD000F701EE59FD4F849190E0F60180839183D5
:102DE000F701E85AFD4FE4910E2F10E0F601028B37
:102DF000138B22E340E060E00E94A00122E340E068
:102E000060E0C8010E94A001FFEFEF1AFF0A24E171
:102E1000C20ED11C3AE0E316F104D1F6812CCE5259
:102E2000DF4F18821982C25DD04080E991E0C4531F
:102E3000DF4F88839983CC5CD040BAEFCB2EDD2462
:102E4000DA941AEFE12EFF24FA94E0E9F1E0C1539D
:102E5000DF4FE883F983CF5CD040512C412C912C7B
:102E6000CA52DF4F1882C65DD0404FC17A01DEC121
:102E7000CF52DF4F8881C15DD040882309F458C20A
:102E8000B91409F4CFC494E5291692E0390609F083
:102E9000BCC4C253DF4FE881CE5CD040EE2319F0B2
:102EA000F1E0EF1AF10800E020E040E0CC52DF4F03
:102EB00068817981C45DD0408C2D0E94E80322E3B3
:102EC00040E0B1018E2D0E94E803CC52DF4F2882F2
:102ED0003982C45DD0406701882009F4C7C1809160
:102EE000080481FF04C08091080482FD06C031E916
:102EF000431631E0530608F4B9C166E970E082E395
:102F000090E00E947F05CF52DF4F1881C15DD04015
:102F10000AE0F1018491181708F035C0E10FF11DA6
:102F2000849124912C0D8C0D9D2D911D6AE070E0F3
:102F3000D6D57727069FC001079F900D112440E04A
:102F4000322F341B4817190614F44F5FF9CF8491C0
:102F50008C0D9D2D911D069FF001079FF00D1124F2
:102F6000E30FF11DEE0FFF1F21E030E02C0F3D1F9E
:102F7000E20FF31F8083918320E040E062E30E9430
:102F8000A0011F5FC6CF13E0A12E7E0135EBE30E3B
:102F9000F11C612C8701982CB8E07B2E662001F192
:102FA000F801828193810097D9F06C01FAE0CF0E8D
:102FB000D11CF801C68AD78A20E040E060E00E9478
:102FC000A00160E570E080E590E00E947F0522E3CB
:102FD00040E060E0C6010E94A001F8011282138265
:102FE000F80182819381892B09F4912C7A940E5FE8
:102FF0001F4F7110D3CF9920C1F1C453DF4F2881E7
:103000003981CC5CD040293C310540F02A5031094F
:10301000C453DF4F28833983CC5CD040CE52DF4F7E
:1030200088819981C25DD0400196CE52DF4F88835E
:103030009983C25DD04087010E5F1F4FCF52DF4F93
:10304000D880C15DD04020E040E060E0F80181918F
:1030500091918F010E94A001F80132971082118294
:10306000D394F9E0DF12EFCF692C24E1E21AF108E2
:10307000C753DF4F88819981C95CD040E816F906B3
:1030800009F088CFAA94A11080CF3BD425E030E08E
:1030900040E050E0A7D4CA52DF4F6883C65DD040FD
:1030A000FAEFCF2EDD24DA94AAEFEA2EFF24FA9469
:1030B00008EC10E020E030E041E060E080E00E94B9
:1030C000B504882309F10E941C088E010F5F1F4F71
:1030D000EAE0AE2E712C612CF301EE0FFF1FE00F22
:1030E000F11F22E340E060E0808191810E94A00115
:1030F0002FEF621A720A3AE06316710469F7AA9414
:103100000C5E1F4FA110E6CF9B2C8091773B811165
:103110000FC121E041E063E00E943103B82ECA52A2
:10312000DF4F3881C65DD04024E0329FF00111248A
:10313000E80FF11DEE0FFF1FEC5CF444208031809E
:10314000891551F080916F3B882331F068E270E07F
:1031500088E290E00E947F058091703B882321F0F7
:103160008091703B480E511CC153DF4F888199817B
:10317000CF5CD0404816590658F093E6E916F104A2
:103180003CF4811005C0EAE0EE0EF11C512C412CFC
:10319000812CC553DF4FF881CB5CD040C253DF4F49
:1031A000F883CE5CD040AF2E21E031E0CF52DF4F2C
:1031B0003883C15DD040F1018491281708F058CEC2
:1031C0008E010F5F1F4F3AE0E20FF11D712C612C51
:1031D0006491A70141505109D301AA0FBB1FA00F51
:1031E000B11F8D919C91640F752F711D6817790720
:1031F00029F4C253DF4F1882CE5CD040A491B701AE
:103200006F5F7F4F6A0F711D8617970709F4D7C24A
:10321000B91409F4D7C2A11009C064916E0D7F2DB5
:10322000711DA12C8617970709F420CEC253DF4FDA
:103230004881CE5CD04041110AC044914E0D5F2DB3
:10324000511D8417950719F48FEFE81AF80A9FEFBC
:10325000691A790A4AE06416710409F0B9CF31504D
:103260000C5E1F4F3111B2CF2F5FA5CF76011C141A
:103270001D040CF01DCF8091080481FD41C0809198
:10328000080482FF4AC0C453DF4FE881F981CC5C57
:10329000D040C153DF4FE883F983CF5CD04008E7CB
:1032A00010E020E030E040E060E081E00E94B50402
:1032B0008823E1F18091080481FF38C0C253DF4FB9
:1032C0009881CE5CD0407601992319F0E1E0EE1AA6
:1032D000F10808E710E020E030E040E061E080E045
:1032E0000E94B504882309F4E3CE8091080482FF8C
:1032F000DFCEAA2009F4DCCEFFEFEF1AFF0AD8CE0A
:10330000C453DF4F28813981CC5CD040C153DF4F9B
:1033100028833983CF5CD040C2CF8CE390E0C15387
:10332000DF4F88839983CF5CD040B9CF7601D1CF6E
:103330008091773B81119BC003E610E020E040E0E4
:1033400062E3C8010E94A0018FE097E20197F1F7C4
:1033500000C000000150110989F70E94A602609385
:10336000793B70937A3B80937B3B90937C3B0E94AC
:10337000B105CE52DF4FE880F980C25DD04098EEB3
:10338000E91693E0F90620F067EEE62E63E0F62EEC
:1033900087E00E94DE0800E020E044E68E159F05ED
:1033A00008F07CC065EB72E080E00E94E80320E05A
:1033B00044E669EA72E083E00E94E80320E044E624
:1033C0006DE972E086E00E94E803C7010E947A047A
:1033D000B70187E00E940A0804E610E020E030E030
:1033E00040E061E081E00E94B504811140C000ED41
:1033F00017E020E030E041E060E00E94B50488235F
:10340000E9F00E94B10570E060E087E00E940A08E0
:1034100000E020E044E664E872E080E00E94E80317
:1034200020E044E66CE772E083E00E94E80320E0DD
:1034300044E661E772E086E00E94E8030E94A6028B
:103440000091793B10917A3B20917B3B30917C3B02
:10345000601B710B820B930B6133754781059105DE
:1034600008F4BACF10921E3A81E08093773B0E9415
:10347000B10580911E3A811187CC81E080931E3A7C
:103480000E94A6026093793B70937A3B80937B3BCA
:1034900090937C3B8CE380931F3AD4C961E972E03E
:1034A00080E00E94E80320E044E66CE872E083E0FC
:1034B0000E94E80387E00E94DE080E947A048CCF15
:1034C00068EE73E080E090E00E94E402D12CC12C11
:1034D00039E0E32E48E0642E47E0742E212C55E3BA
:1034E000F52EB12CA12C912C812C412CE42DF0E057
:1034F000EE0FFF1FEF53FD4F859194918093713B29
:103500009093723B8091703B882341F08091703B97
:10351000880E911C8091703BA80EB11CF3E0FF1542
:1035200098F400E510E020E030E040E061E081E068
:103530000E94B504882341F026EFF20E66E170E0A8
:1035400086E190E00E947F0520E044E660E08F2D58
:1035500090E00E94A001F21439F020E040E060E029
:10356000822D90E00E94A00138EB83163BE0930689
:1035700008F4FAC04CE54F1508F4F6C09AE0592E4D
:103580005F0C912C812C6A147B0480F5A090713B18
:10359000B090723B00E020E044E6B5018E2D0E9421
:1035A000E80389E0E81609F4E1C020E040E0B50155
:1035B00081E08E0D0E94E803E110D8C020E040E0D9
:1035C000B50180E00E94E8039CD125E030E040E0B6
:1035D00050E008D2462E89E0E82E29E762167104F1
:1035E00018F031E0631A7108B12CA12C8091713B65
:1035F0009091723BFC01399624913196E49143E01D
:10360000E412C2C0521638F0F0E03E965E161F0675
:1036100009F00CF4B9C010E000E0B80188EC90E0CB
:103620000E947F050C591F4F083582E01807A9F743
:10363000312C08EC10E020E030E041E060E080E078
:103640000E94B50481110E941C081091773B112340
:1036500009F484C00E94A6026093793B70937A3B80
:1036600080937B3B90937C3B0E94B10511116FC00E
:1036700089E00E94DE0800E020E044E68C159D050C
:1036800008F085C065EB72E080E00E94E80320E06E
:1036900044E669EA72E083E00E94E80320E044E641
:1036A0006DE972E086E00E94E803C6010E947A0498
:1036B000B60189E00E940A0804E610E020E030E04C
:1036C00040E061E081E00E94B504811140C000ED5E
:1036D00017E020E030E041E060E00E94B50488237C
:1036E000E9F00E94B10570E060E089E00E940A08FC
:1036F00000E020E044E664E872E080E00E94E80335
:1037000020E044E66CE772E083E00E94E80320E0FA
:1037100044E661E772E086E00E94E8030E94A602A8
:103720000091793B10917A3B20917B3B30917C3B1F
:10373000601B710B820B930B6133754781059105FB
:1037400008F4BACF10921E3A81E08093773B8091C3
:103750001E3A882371F10E94B105B2CE2F2C33207E
:1037600009F478CFF52CC2CE5F2C0DCFEA9492E00D
:10377000E91233CFE8EECE16E3E0DE0608F02DCFF7
:10378000F2E0CF0ED11C29CF3324339452CF61E91C
:1037900072E080E00E94E80320E044E66CE872E01A
:1037A00083E00E94E80389E00E94DE080E947A0418
:1037B00083CF81E080931E3A0E94B10561CEA12C97
:1037C000B9102BCD6491A701465F5F4F460F511D85
:1037D0008417950741F084918E0D9F2D911D8A3598
:1037E00091050CF434CD84918E0D9F2D911DC55300
:1037F000DF4F8880CB5CD04009970CF028CDCF52AA
:10380000DF4F1882C15DD0402ACDF0E52F16F2E0DF
:103810003F0609F048CBAA2009F445CB2FEFE21A66
:10382000F20A41CBEC14FD0409F456CB3CCBEAE898
:10383000FBE3158289E39AE38683978314861586D2
:103840001686178681E083878087118692E09287AB
:103850002CE231E02283338324E630E0208331837D
:1038600097E0948324E234E0208B318B828B08959F
:103870008F929F92AF92BF92CF92DF92EF92FF9280
:10388000CF93DF93EC01688179818A819B816115F7
:1038900071058105910521F464E279ED8BE597E0EE
:1038A0002DE133EF41E050E09DD049015A019B01E9
:1038B000AC01A7EAB1E4B2D06B017C01ACEEB4EF8D
:1038C000A5019401B7D0C60ED71EE81EF91EF7FE5B
:1038D00006C081E0C81AD108E10880E8F80AC88269
:1038E000D982EA82FB82C701B6019F77DF91CF912F
:1038F000FF90EF90DF90CF90BF90AF909F908F9010
:1039000008958F929F92AF92BF92CF92DF92EF92E3
:10391000FF926091213A7091223A8091233A9091DE
:10392000243A611571058105910521F464E279ED70
:103930008BE597E02DE133EF41E050E053D04901B2
:103940005A019B01AC01A7EAB1E468D06B017C018C
:10395000ACEEB4EFA50194016DD0C60ED71EE81EE3
:10396000F91EF7FE06C081E0C81AD108E10880E818
:10397000F80AC092213AD092223AE092233AF09289
:10398000243AC701B6019F77FF90EF90DF90CF9068
:10399000BF90AF909F908F9008956093213A70935D
:1039A000223A8093233A9093243A089503D0808159
:1039B00099270895FC01E050FC4E0895262FAF93FF
:1039C000BF93E0E0F0E1328131FDFDCFDC01A0509A
:1039D000BC4E2C933DE934BF23E020830196BF9178
:1039E000AF910895052E97FB16F400940FD057FD64
:1039F00005D024D007FC02D046F408C0509540956D
:103A0000309521953F4F4F4F5F4F0895909580958A
:103A1000709561957F4F8F4F9F4F089531D0A59F2F
:103A2000900DB49F900DA49F800D911D11240895B9
:103A3000B7FFF4CFF3DF821B930B0895A1E21A2E98
:103A4000AA1BBB1BFD010DC0AA1FBB1FEE1FFF1F42
:103A5000A217B307E407F50720F0A21BB30BE40B92
:103A6000F50B661F771F881F991F1A9469F76095D9
:103A70007095809590959B01AC01BD01CF01089593
:103A8000A29FB001B39FC001A39F700D811D11249F
:103A9000911DB29F700D811D1124911D0895991BD8
:103AA00079E004C0991F961708F0961B881F7A9535
:103AB000C9F780950895AA1BBB1B51E107C0AA1F37
:103AC000BB1FA617B70710F0A61BB70B881F991FBF
:103AD0005A95A9F780959095BC01CD01089597FB63
:103AE000072E16F4009406D077FD08D0E4DF07FC1B
:103AF00005D03EF4909581959F4F089570956195FE
:103B00007F4F0895EE0FFF1F0590F491E02D09946B
:103B1000DC0101C06D9341505040E0F70895F894E6
:023B2000FFCFD5
:103B2200C400BA00B000A800A00098008E00850072
:103B32007C00480143013E016C023901390139011F
:103B42003901500254025002540234012F012A0159
:103B5200250120011B0120011B0100FF01000100C2
:0A3B620000FFFF0000010001FF005A
:103B6C000101010100000000000100000100000043
:103B7C000000010101010000000000010000010033
:103B8C000000000001010101010100000001000022
:103B9C00010101010001010000010000010001010F
:103BAC000000010101010001010000010000010001
:103BBC0001010101010101000100010200010000ED
:103BCC0001000101000100010000000100010100E1
:103BDC0001000100010001010001000100010001D0
:103BEC0000010000010001010001000100010001C1
:103BFC0001010100010100010100010101000101AD
:103C0C00010100010100010100010100010100019D
:103C1C00010001010001000100010100010001018E
:103C2C00000101000101000101010001010000017E
:103C3C000001000001000000010001000001000073
:103C4C000001000001010100000001000100000161
:103C5C00000001000101010101000001010101004E
:103C6C00000100000100010100000101010100013F
:103C7C000001010000000000000100000000000035
:103C8C000000000100000000000000000001000026
:103C9C000000000001010000000000000001010113
:103CAC000101000001000001000100010000000002
:103CBC0001000101000001000001000100010001F0
:103CCC0000000100010001000100010100000101E0
:103CDC0000000001000101000000000001010000D3
:103CEC0001000000000100010000010000000100C3
:103CFC0001010100000000000100010100010101AF
:103D0C00010001010001010000010101010001019C
:103D1C00010101000101000101000001000101018C
:103D2C00000101010001000101010100010000007E
:103D3C00010001010001000100010001010001006E
:103D4C00010001000101000100010001000100015E
:103D5C00000100000101010101000100000100004F
:103D6C00010001010000010101010001010000013D
:103D7C000000010001010101010101010100013CF0
:063D8C000101000000002F
:00000001FF
