:1000000068C100009AC1000098C100000C94CD089E
:1000100094C1000092C1000090C100000C947109CD
:100020008CC100008AC1000088C1000086C10000A8
:1000300084C100000C94250980C100007EC100002D
:100040007CC100007AC1000078C1000076C10000C8
:1000500074C1000072C1000070C100006EC10000D8
:100060006CC100006AC1000068C1000066C10000E8
:1000700064C1000062C1000060C100000902040602
:100080000B0D0F1118090103050B0D0F16180A02AD
:1000900004060B0D0F11161A080B0D0F1116181A66
:1000A0000803050C0E101719080204060D0F171986
:1000B0000A0204060C0E1016181A0A02060B0D0F7F
:1000C0001116181A090204060D0F16181A05010A4E
:1000D0000B140500010B0C05010A0B0C05010A0BA2
:1000E00015050001020B05010B0C150500010A0B9B
:1000F00005020A0B0C0500010B15050001020A0997
:10010000000A141E2832505A3C4609000A141E28C0
:1001100046505A323C09000A14323C46505A1E28B6
:1001200009000A28323C46505A141E09000A141EBF
:100130003C46505A28320B0001020A0C14151620B6
:100140002A0E0001020A0C1415161E2028292A085E
:100150000001020C16202A0B000A1415161E202876
:10016000292A0C0001020A1415162028292A0A003F
:10017000020A0C141516202A0C0001020C14151684
:100180002028292A0A0001020A1415161E280D002B
:1001900001020A0C14161E2028292A0C00020A0B40
:1001A0000C14161E20282A0C00020A0C1415161E08
:1001B00020282A0B00010A0C14151E20282A0B00E7
:1001C000010A0C14151E20282909010A0C14161EF8
:1001D00020290801020A141E292A0B00010A0C1406
:1001E000161E202829080001020B151F2906000BE6
:1001F000161F2806020B141F2A050B000102050119
:100200000A0B0C04000A140400010209131D273113
:100210003B454F5963000A141E28323C46505A058C
:10022000000A14152B01200115010A01FF000C0022
:1002300001020C1415161E28292A06020C16202A63
:100240000C0001020A0C14161E20282A0501151F95
:10025000290C00020A0C14161E1F20282A000A145A
:100260001E28323C46505A09131D27313B454F5931
:100270006304000102190B0C0D0E0F10111215165C
:100280001718191A1B1C1F202122232425260900B8
:10029000010A0C14151E2808000A141E28292A0C0D
:1002A0000001020A1415161E28292A0801020A153F
:1002B0002028298E013A022E0278016E0162015730
:1002C000014F0141013601FA00320064009600003E
:1002D000DB1911241FBECFEFCDBFDFE3DEBF80915E
:1002E000400080934000811105C098ED21E094BF4B
:1002F000209341008CBB1AE3A0E0B8E3E4EFF6E3FF
:1003000002C005900D92A632B107D9F72BE3A6E201
:10031000BAE301C01D92A739B207E1F711E0C9E6BF
:10032000D1E004C02197FE010E94461BC836D107C8
:10033000C9F70E94B9090C94531B62CEE091843B2B
:10034000F091853B8E179F0798F53091893B3323B9
:1003500061F0639FB0011124672F349FA001112425
:10036000452F329F90011124232F30918F3BE09134
:100370008A3BF0918B3B50918C3B35131AC0DC01CA
:10038000AA0FBB1F8A0F9B1F8E0F9F1FE0918C3BF4
:10039000E80FF92FF11D6083E0918D3BE80FF92FF5
:1003A000F11D408330918E3B830F911DFC01208312
:1003B0000895880F991F880F991F8E0F9F1FFC01AA
:1003C000E30FF11D1082E2CF1F93CF93DF9311E073
:1003D000180F2091893B1217A9F1C0918A3BD09147
:1003E0008B3B215070E060E061F08F3FF9F430E02A
:1003F00050E040E06FEF7FEF80E090E00E94B61A9F
:10040000B901FE014091863B5091873BCF018C1B87
:100410009D0B84179507A0F4DF014D91469FC00105
:10042000479F900D11249083FD01ECCF812F90E028
:10043000982F88270197622F70E00E941F1BE1CF41
:100440001093893BDF91CF911F910895CF93DF9354
:10045000CDB7DEB72797CDBFDEBFF8948091863B3E
:100460009091873B89839A83A0918A3BB0918B3B83
:10047000FD0131968C918F831B82A091943BB091AA
:10048000953B9C918091963B982B9E839C91809567
:1004900089238D838D818C838F8187FF02C08E811C
:1004A0008C835E816D814F813C812B8189819A8112
:1004B0005C93262F3C9300C046FD252F6C9300C013
:1004C0005C93362F2C9300C045FD352F6C9300C0F4
:1004D0005C93262F3C9300C044FD252F6C9300C0F5
:1004E0005C93362F2C9300C043FD352F6C9300C0D6
:1004F0005C93262F3C9300C042FD252F6C9300C0D7
:100500005C93362F2C9300C041FD352F6C9300C0B7
:100510005C93262F3C9300C040FD252F6C930197E0
:100520005C93362F2C93419147FD352F6C9301F648
:100530004F833C832B8389839A8378942796CDBFFE
:10054000DEBFDF91CF9108952091823B3091833BB4
:1005500023703327AC01440F551F440F551F242B24
:10056000352B2093823B3093833B8093803B909349
:10057000813B0895613019F0623011F00895E4CFA5
:100580002091823B3091833B21703327AC01440F93
:10059000551F242B352B2093823B3093833B809334
:1005A000803B9093813B0895CF93DF93362F622F4A
:1005B0009091080496FB992790F921E092272091C9
:1005C000080425FD53C022E0922BE0917D3B9E174D
:1005D000B1F024E0E202F0011124E92BEC51F944DE
:1005E0002081E091823BF091833BE20FF11D27FDDA
:1005F000FA95E093823BF093833B90937D3B62308E
:10060000B9F19330A1F4E091823BF091833BF595F1
:10061000E795F595E795E093803BF093813BE0917A
:10062000793BF0917A3BE0937B3BF0937C3BE0910C
:10063000803BF091813BE0937E3BF0937F3BC82F62
:10064000D0E0442329F1832F90E0EC17FD07DCF480
:1006500091DF8091803B9091813B80937E3B909392
:100660007F3B80917E3BDF91CF91089520E0ACCF1E
:10067000992311F09330D9F6E091823BF091833BBE
:10068000F595E795C8CF8E179F075CF7CE01E0CFB1
:10069000EC17FD073CF4CE016DDFC0937E3BD09399
:1006A0007F3BDFCFC32FD0E0CE17DF07D4F6F3CFE9
:1006B000AC0180915D3B882329F0909124049260E5
:1006C0009093240430E020E000002F5F3F4F42175A
:1006D0005307D0F7809124048D7F809324040895DC
:1006E0008091643B823089F018F4813031F00895B4
:1006F000833089F08430B9F0089580E58093613BC0
:100700001092623B1092633B08951092613B80E52A
:100710008093623BF7CF1092613B1092623B80E581
:100720008093633B089580E58093613B8093623BB7
:10073000F7CFAF92BF92CF92DF92EF92FF920F93DB
:100740001F93CF93DF936B01B42EA22EFB01149164
:10075000D0E0C0E0E82EF12CC11778F4CC2359F09A
:10076000F601EC0FFD1F8491202F4A2D6B2D8E0D6D
:100770009F2D911DE3DD2196EFCFDF91CF911F914A
:100780000F91FF90EF90DF90CF90BF90AF900895C2
:10079000CF92DF92EF92FF920F931F93CF93DF934D
:1007A000D82FC62FE090633BF090623B1091613BE5
:1007B0006A3090F5811129C0D12CC12C20E040E095
:1007C00060E0C601BBDD8FEFC81AD80A8DE0C816FD
:1007D000D104A1F7EC2FF0E0EE0FFF1FED54FD4F19
:1007E0006591749160936B3B70936C3B0E2D2F2D34
:1007F000412F84E08D0F9DDFDF91CF911F910F91ED
:10080000FF90EF90DF90CF9008950E2D2F2D412F68
:100810006EE871E08EDFDECF862F6AE00E94131B48
:10082000C92FE82FF0E0EE0FFF1FED54FD4F65914B
:1008300074910E2D2F2D412F8D2F7BDFEC2FF0E0AB
:10084000EE0FFF1FED54FD4F6591749160936B3B6C
:1008500070936C3BCCCF0F93CF93DF9324E6209320
:10086000613B1092623B1092633B883E23E092070B
:1008700048F5EC018436910518F4682F85E388DF8C
:10088000CE018456910984389340E0F4CE0164E6A9
:1008900070E00E941F1BC82FFB01EE0FFF1FED54DD
:1008A000FD4F6591749160936B3B70936C3B00E0DE
:1008B00020E044E682E33DDF6C2F85E3DF91CF91BA
:1008C0000F9166CFDF91CF910F91089590912E3ABD
:1008D000911114C0662391F09091080491FD0EC00F
:1008E0008091753B9091763B80932C3A90932D3A72
:1008F00081E080932E3A462F842F0895909108042A
:1009000091FD0FC0662379F06091753B7091763B45
:10091000E0912C3AF0912D3A6E1B7F0B261737078A
:1009200010F410922E3A90912B3A911106C0882320
:1009300021F09091080492FF2BC09091080492FD41
:100940000FC0882379F08091753B9091763B609140
:10095000293A70912A3A861B970B2817390710F409
:1009600010922B3A8091283A81111FC0442321F222
:100970008091080483FD1CC08091753B9091763B6B
:100980008093263A9093273A81E08093283AB4CF17
:100990002091753B3091763B2093293A30932A3A47
:1009A00091E090932B3A482FA7CF442309F4A4CF8A
:1009B0008091753B9091763B4091263A5091273A31
:1009C000841B950B2817390710F41092283A40E041
:1009D00093CF2F923F924F925F926F927F928F921E
:1009E0009F92AF92BF92CF92DF92EF92FF920F93BE
:1009F0001F93CF93DF93CDB7DEB72C97CDBFDEBF6C
:100A000089879A876E834F83288710E000E01982D8
:100A10001A8280911C3A882309F444C02BE032E00A
:100A20002B873C87E984FA84E00EF11EEB85FC8578
:100A30008491F701208190E0213009F049C0288598
:100A40004F816E817BDC2B853C852F5F3F4F2B8751
:100A50003C8739E0E30EF11C4B855C8540515240E8
:100A600029F78091753B9091763BE981FA818E1B45
:100A70009F0B8035910520F480911C3A8111F1CFB4
:100A80002091753B3091763B29833A83512C412C40
:100A900080911C3A811120C00F5F1F4F0930110552
:100AA00009F0B7CF2C96CDBFDEBFDF91CF911F915C
:100AB0000F91FF90EF90DF90CF90BF90AF909F90FD
:100AC0008F907F906F905F904F903F902F90089500
:100AD00020E040E060E0B6CF8091843B9091853B80
:100AE000812C912C54014816590608F002C14091FE
:100AF0008F3BE0918C3BC090893B60908A3B70902B
:100B00008B3B80918D3B90E020918E3B30E0242EFA
:100B1000312C4E1362C0A201440F551F4B875C87D6
:100B2000440D551D460D571DFA01E20DF31D708150
:100B3000840F951FFC013080240F351FF9012080A0
:100B4000CC2009F43FC0D12CF12CE12C672F70E0B0
:100B5000762F6627072E000C880B990BA7019601AC
:100B60000E94E21A590199248824632D70E0762F9F
:100B70006627072E000C880B990BA70196010E948F
:100B8000E21A542F432F322F2227822A932AA42A93
:100B9000B52A622D70E0762F6627072E000C880B91
:100BA000990BA70196010E94E21A822A932AA42A8D
:100BB000B52A4B855C85440D551D460D571D4B8749
:100BC0005C8780C0832C912CB12CA12CBA2CA92C31
:100BD000982C8824A72A8228ECCFA201440F551F05
:100BE000440F551F4B875C87460D571DDA01A20D38
:100BF000B31D7C91E40FF52FF11D60816D83840F8F
:100C0000951FFC01F081FB83240F351FF901F08152
:100C1000FC83CC2009F482C0D12CF12CE12C672F6D
:100C200070E0762F6627072E000C880B990BA70122
:100C300096010E94E21AB22EAA24992488242D81BA
:100C4000622F70E0762F6627072E000C880B990B19
:100C5000A70196010E94E21AA90133272227822ABE
:100C6000932AA42AB52A3C81632F70E0762F662749
:100C7000072E000C880B990BA70196010E94E21A1F
:100C8000822A932AA42AB52A4B81642F70E0762FFA
:100C90006627072E000C880B990BA70196010E946E
:100CA000E21A542F432F322F2227822A932AA42A72
:100CB000B52AEB85FC85E60DF71DEB87FC87E20D79
:100CC000F31D1082E0918C3B2B853C852E0F311D4E
:100CD000F9011082E0918D3B4B855C854E0F511DD3
:100CE000FA01108280918E3BEB85FC85E80FF11DA7
:100CF0001082442051F089288A288B2831F02885D9
:100D00004F816E81C201019719DBFFEF4F1A5F0A15
:100D100022E34216510409F0BBCEBECE5D81852E82
:100D2000912CB12CA12C540199248824B72A6C81D0
:100D3000862A8B81982ABDCFE4E8FBE34281538168
:100D400070E060E0868197810C944C1BC9DC909127
:100D50005E3B8091203A981769F080915E3B8093CA
:100D6000203AEADF60915E3B85E312DD60915F3BF4
:100D700080E00ECD0895E0DF81E080931C3A84E6A8
:100D80008093613B1092623B1092633B60911E3AEC
:100D900083E3FEDC24E640E060E08DE298E319DEC8
:100DA00024E640E060E080E098E313DEC5CF1F93C7
:100DB000CF93DF93162F672FC82FD0E0CE010E946C
:100DC000A21A612FCE010196DF91CF911F910C9451
:100DD000A21A0F93CF93DF93AFDF80915D3B90E03A
:100DE000B3DBC0E001C0C2E028EE33E040E061E0E8
:100DF00080E06CDD882329F0CF5FC33009F4C0E0C8
:100E00009BDF28EE33E040E060E081E05FDD882397
:100E100019F1C15000F590DF00E020E044E66FE9F1
:100E200072E084E186DC20E044E660E472E087E181
:100E300080DC20E044E66AED71E08AE17ADC28EEAD
:100E400033E041E060E080E041DD882361F281E051
:100E50008093713B6BC070DFC13009F44BC0C2306E
:100E6000D9F221E041E061E080E09EDBD82F00E094
:100E700020E044E66BEA72E080E05BDC20E044E6E0
:100E800060E472E083E055DC20E044E66AED71E066
:100E900086E04FDCC0915D3BCC23C9F020E044E606
:100EA00069EC71E082E345DC20E044E660E472E056
:100EB00085E33FDCCD1709F494CF3EDF61E06C277A
:100EC00060935D3B86E090E00E94A21A8ACF00E02A
:100ED00020E044E669EC71E082E32BDC20E044E6AC
:100EE00064E871E085E325DC20E044E664E871E035
:100EF00088E3DFCF00E020E044E663EB71E084E1CB
:100F000018DC20E044E66FE972E087E112DC20E0C3
:100F100044E66BEA72E08AE10CDC28EE33E041E063
:100F200060E080E0D3DC882309F45ECF8091753BDC
:100F30009091763B8093733B9093743B8CE38093CA
:100F4000203ADF91CF910F91F7CECF92DF92EF92BF
:100F5000FF92CF93DF938091A1008D7F8093A100BA
:100F6000809102068F7C80658093020680E48093E6
:100F7000A00080910006882371F08DE18093060621
:100F800081E08093080680910B0680FFFCCF809162
:100F90001006909111068091000629EF32E888230F
:100FA00071F08DE18093060681E0809308068091C0
:100FB0000B0680FFFCCF209110063091110650E007
:100FC00040E064E27AE687E190E00E94E21A44277A
:100FD0005527245A3B4041095109A9E0B0E00E943D
:100FE000D21A2EED33E040E050E00E94B61A6901BB
:100FF000E90120932F3A3093303A2630310534F00E
:1010000020E044E660E089E090E098D983E0C81AE7
:10101000D10820E044E683E0C816D10420F02397ED
:1010200064F420E040E064E689E090E0DF91CF9155
:10103000FF90EF90DF90CF9081C9DF91CF91FF902B
:10104000EF90DF90CF900895EF92FF920F93CF93A0
:10105000DF937C01D62F70DE85E090E00E949A1A23
:10106000C82F86E090E00E949A1A2C2F30E0322F91
:101070002227820F932F911D00E020E044E68E1579
:101080009F0508F047C060E472E080E052DB20E09A
:1010900044E66FE972E083E04CDB20E044E661E582
:1010A00072E086E046DBC701D6DBB7018D2F7FDE1D
:1010B0008091753B9091763B8093733B9093743B0A
:1010C00028EE33E040E061E081E000DC811110C0F7
:1010D0008091753B9091763B2091733B3091743BAE
:1010E000821B930B893B9B4090F181E08093713B85
:1010F00023DE8091753B9091763B8093733B909378
:10110000743B8CE38093203ADF91CF910F91FF9055
:10111000EF90089567EA71E080E00BDB20E044E6A1
:101120006CE472E083E005DBED2EF12CC7010E9438
:101130009A1AC82FC70101960E949A1A2C2F30E0E4
:10114000322F2227820F932F911D85DBB1CF809103
:10115000080483FDB5CFF0DD70E060E08D2F27DE61
:1011600000E020E044E662ED71E080E0E2DA20E0B9
:1011700044E667E972E083E0DCDA20E044E663EB12
:1011800071E086E0D6DA8FEF93ED20E38150904056
:101190002040E1F700C0000093CF1F920F920FB6DE
:1011A0000F9211248F938091090483FF14C08091C2
:1011B000090488708093090480911304887F8093C8
:1011C0001304809104048F7E809304048091500066
:1011D0008E7F809350008091090481FF0AC0809126
:1011E000090482708093090480911104887F8093A0
:1011F00011048091090482FF0AC08091090484705F
:101200008093090480911204887F80931204809156
:10121000090486FF0FC0809109048074809309043B
:1012200080911604887F80931604809150008E7FF1
:101230008093500081E080931F3A10921C3A8F9166
:101240000F900FBE0F901F9018951F920F920FB620
:101250000F9211242F933F934F935F936F937F933C
:101260008F939F93AF93BF93EF93FF9381E080930E
:10127000460A8091753B9091763B6AE070E00E944F
:101280001F1B892B59F480918A3B90918B3B892BB2
:1012900029F08091883B8C300CF4D8D88091753B34
:1012A0009091763B01968093753B9093763B80912D
:1012B000793B90917A3B01968093793B90937A3B6E
:1012C000FF91EF91BF91AF919F918F917F916F911E
:1012D0005F914F913F912F910F900FBE0F901F90F4
:1012E00018951F920F920FB60F9211248F939F9310
:1012F00081E0809353018091783B8F5F8093783BAE
:101300008091783B8C33C0F01092783B80915E3BAB
:101310008F5F80935E3B80915E3B8C3368F01092D0
:101320005E3B80915F3B8F5F80935F3B80915F3B33
:10133000883110F010925F3B80911F3A811101C0FB
:1013400088958091080483FD0DC08091080481FD7B
:1013500009C08091080482FD05C088ED91E084BF3A
:10136000909341009F918F910F900FBE0F901F900F
:101370001895CF93DF93CDB7DEB7C350D140CDBF23
:10138000DEBF81E098ED94BF80936100E0E0F6E07D
:1013900092E592839AE0958390E293838083809391
:1013A000030A8EEF8093260A8093270A8BE08093AE
:1013B000000A789480E98093000483E080932004FD
:1013C00088E08093150480931604809104048F7E36
:1013D000809304048FEF90E00E949A1A833821F1E1
:1013E00063E88FEF90E00E94A21A61E082E090E053
:1013F0000E94A21A62E083E090E00E94A21A61E0DB
:1014000084E090E00E94A21A70E060E085E0CFDC0A
:1014100070E060E087E0CBDC70E060E089E0C7DC92
:1014200070E060E08BE0C3DC82E090E00E949A1AFA
:101430008093643B84E090E00E949A1A91E08111CD
:1014400001C090E090935D3B83E090E00E949A1A87
:101450008093603B982F990F890F0E94E40140D937
:1014600088ED84BF81E080937C00809141018111EF
:10147000FCCF80E88093400182E080934701809117
:1014800051018111FCCF81E78093500181E080936D
:1014900052018093450A80E49FE180934C0A909327
:1014A0004D0A83E08093400A789480915000897FB0
:1014B0008460809350009E012F5F3F4FCF51DF4FDC
:1014C00028833983C15ED04041DC9091783B809184
:1014D000773B981729F08091783B8093773B35DDF7
:1014E0008091753B9091763B2091733B3091743B9A
:1014F000821B930B8938934108F447C08091753B58
:101500009091763B8093733B9093743B809100065F
:1015100069EF72E8882371F087E08093060681E026
:101520008093080680910B0680FFFCCF6091100627
:1015300070911106072E000C880B990B611571052F
:101540008105910511F00E94911AF6DB80918A3B8A
:1015500090918B3B892B31F08091883B8C3014F437
:101560000E9426028CE38093203A10921F3A8091C9
:10157000040480618093040481E0809313048091CB
:101580005000816080935000889528EE33E041E060
:1015900060E080E09BD9882309F484C08091753B8A
:1015A0009091763B2091733B3091743B821B930B5F
:1015B000893E934008F476C062E085E090E00E94A6
:1015C000BA0200E01CE3D12E28EE33E041E061E0F6
:1015D00081E07CD9811153C0B8DCB8DBE090633B7B
:1015E000F090623B1091613B2E2D4F2D612F8DE3CA
:1015F00090E00E949E012E2D4F2D612F81E590E0FD
:101600000E949E0122E040E069E182E00E94D40253
:10161000182F801769F08091753B9091763B8093ED
:10162000733B9093743B812F0E94E401D092203A47
:101630008091753B9091763B2091733B3091743B48
:10164000821B930B853F9140C0F08091753B909138
:10165000763B8093733B9093743B8091130481603D
:101660008093130480911604836080931604809104
:1016700050008160809350008895012FA5CF5CDBDE
:101680008091603B982F990F890F0E94E40180910F
:10169000753B9091763B8093733B9093743B8CE3C6
:1016A0008093203A28EE33E040E061E081E00ED9FB
:1016B000882309F4E8C140DB81E08093723B80918C
:1016C0006F3BDD24D394D80E62E09091703B0E9472
:1016D000BA02BB24B39422E040E065E080E00E94BF
:1016E000D402182FE82EF12CE0926F3BF092703B61
:1016F000DE141F0401F1B0921C3A1EDB00E020E072
:1017000044E663EF71E082E314D820E044E66DEE36
:1017100071E089E30ED880911104836080931104F5
:101720008091120483608093120480911604836078
:1017300080931604D12E28EE33E040E061E081E092
:10174000C5D8C82E123009F4C8C008F052C0112301
:1017500009F472C0113009F48DC0CC2009F4BBCF5C
:10176000EF2809F07BC1E8DAB4E6FB2E10E028EEA2
:1017700033E040E061E080E0A9D8882329F01F5FD2
:10178000153009F410E0D8DA28EE33E040E060E0EC
:1017900081E09CD8882309F41CC1115008F018C1BD
:1017A000CBDAD090633BE090623B1091613B0D2D12
:1017B0002E2D412F6FE972E084E10E9499032E2DB6
:1017C000412F60E472E087E10E9499032E2D412FA2
:1017D0006AED71E08AE10E94990328EE33E041E06E
:1017E00060E080E073D814E0882309F428C115E094
:1017F00026C1143009F4C3C008F498C0153009F0AC
:10180000ACCF24E640E060E08DE490E00E949E01D1
:1018100000E020E044E66FE972E080E00E94990376
:1018200020E044E660E472E083E00E94990320E057
:1018300044E66AED71E01AC024E640E060E088E426
:1018400090E00E949E0104E620E040E06BEA72E036
:1018500080E00E94990320E040E06FE972E083E0BD
:101860000E94990320E040E065EE71E086E00E946E
:10187000990373CF24E640E060E089E490E00E94A1
:101880009E0110E080911C3A882309F466CF123043
:10189000C1F030F4113071F01F5F153099F75DCF52
:1018A0001330A9F01430C1F720E044E660E088E688
:1018B00099E305C020E044E660E08FEE99E389D823
:1018C000EBCF20E044E660E082EC99E3F8CF20E043
:1018D00044E660E085E999E3F2CF24E640E060E089
:1018E0008AE490E00E949E0110E080911C3A8823D7
:1018F00009F433CF123071F0133091F0113031F41C
:1019000020E040E560E58FEE99E363D81F5F143077
:1019100061F723CF20E040E560E58BE399E3F5CF65
:1019200020E040E560E58EE099E3EFCF24E640E07B
:1019300060E08BE490E00E949E0110E080911C3AF0
:10194000882309F40ACF123071F0133091F011306E
:1019500031F420E044E660E081EE98E33AD81F5F7E
:10196000143061F7FACE20E044E660E084EB98E3BF
:10197000F5CF20E044E660E08FEE99E3EFCF24E678
:1019800040E060E08CE490E00E949E0110E08091D5
:101990001C3A882309F4E1CE123071F0133091F033
:1019A000113031F420E040E560E58FEE99E311D885
:1019B0001F5F143061F7D1CE20E040E560E587E895
:1019C00098E3F5CF20E040E560E58AE598E3EFCFC6
:1019D000B3D9123009F49EC00CF064C0113009F480
:1019E00068C01091643B1F1529F0A6D9812F90E0A3
:1019F0000E94A402D090633BE090623BF090613B78
:101A00000D2D2E2D4F2D62ED71E080E00E94990387
:101A10002E2D4F2D69EC71E084E00E949903612F17
:101A200085E30E94C80321E041E064E081E00E9478
:101A3000D4028093643B0E947003F12E10E0609109
:101A4000643B82E090E00E94A21A6091603B83E0D8
:101A500090E00E94A21A153009F089CE80916F3B68
:101A60009091703B009711F0059769F41092723BCA
:101A70008CE38093203A8091753B9091763B8093E4
:101A8000733B9093743B4090723B442009F41CCD0F
:101A90008091713B882309F49BC01092713B109296
:101AA000723BF1CF133009F464C0143009F099CFC0
:101AB00078CEE090603BEF1451F03ED98E2D90E04F
:101AC0000E94A4028E2D880F8E0D0E94E401C0900A
:101AD000633BD090623BF090613B0C2D2D2D4F2D40
:101AE0006EEB71E080E00E9499032D2D4F2D63EB8A
:101AF00071E084E00E9499036E2D85E30E94C80383
:101B000021E041E065E081E00E94D4028093603BE7
:101B1000FE2C95CF80915F3B8F1541F0F0905F3B9D
:101B20000BD980915F3B90E00E94A402C090633B80
:101B3000D090623BE090613B0C2D2D2D4E2D67EA3D
:101B400071E080E00E9499032D2D4E2D63EB71E032
:101B500084E00E94990360915F3B85E30E94C80383
:101B600021E041E067E180E00E94D40280935F3B86
:101B700066CF80915E3B8F1541F0F0905E3BDCD8E4
:101B800080915E3B90E00E94A402C090633BD090A5
:101B9000623BE090613B0C2D2D2D4E2D6BE971E0E9
:101BA00080E00E9499032D2D4E2D6CE472E084E0BC
:101BB0000E94990360915E3B85E30E94C80321E087
:101BC00041E06BE380E00E94D40280935E3B37CF1C
:101BD000B3D880916F3B9091703B8230910509F4AE
:101BE000BFC40CF073C0019709F04DCFE7ECF2E0F1
:101BF0008591949180936D3B90936E3BBCD88DB74B
:101C00009EB7CE5FDE4F88839983C250D140E0916A
:101C1000673BF0E0EE0FFF1FE655F9440190F081BD
:101C2000E02D84918150CB51DF4F8883C55ED04039
:101C300090E09C01220F331FADB7BEB7A21BB30BC0
:101C4000ADBFBEBF2DB73EB72F5F3F4FCE50DF4F6A
:101C500028833983C25FD0404DB75EB7481B590B0C
:101C60004DBF5EBF8DB79EB7019624E6ADB7BEB738
:101C700011962C93CC50DF4F8883C45FD040C15065
:101C8000DF4F9883CF5FD040BC01CE50DF4F28811B
:101C90003981C25FD04043E63196862FCC50DF4F6A
:101CA000B881C45FD0408B1BCB51DF4F5881C55EDC
:101CB000D040851708F05FC0849190E0D9018D93E2
:101CC0009D939D01DB014D93BD01E6CF83309105CE
:101CD00009F4F7C6049709F0D6CE28EE33E041E0C8
:101CE00061E081E00E946604F82EE0906A3B811179
:101CF000C2C721E041E062E081E00E94D402182FD7
:101D0000E82FF0E0EE0FFF1FED54FD4F6591749149
:101D100060936B3B70936C3B04E620E040E082E311
:101D20000E94990300E020E044E66BEA72E080E064
:101D30000E94990320E044E66FE972E083E00E948C
:101D4000990320E044E667E972E087E00E94990386
:101D500020E044E66EE872E086E30E9499031E15D7
:101D600009F4BBCF0E949C0682E390E00E945803D6
:101D700010936A3BB2CFC051DF4F4882C05FD04062
:101D8000512CC551DF4F1882CB5ED040CB51DF4F75
:101D9000B881C55ED040CD51DF4FB883C35ED0401F
:101DA0004AE0E42EF12C59E0252E312CCA50DF4FA9
:101DB00018821982C65FD040C650DF4F1882198240
:101DC000CA5FD040C850DF4F18821982C85FD04028
:101DD000C450DF4F18821982CC5FD0401AE5C7513A
:101DE000DF4F1882C95ED040C951DF4F1882C75EED
:101DF000D04063E6662EC151DF4F1882CF5ED040DF
:101E0000EAE0C250DF4FE883CE5FD040F6C122E067
:101E100040E067E580E50E94D402782EC151DF4F93
:101E20008881CF5ED040781639F000E020E040E0B5
:101E30006EEF71E00E94990380911D3A00E024E664
:101E400040E0823008F444E66EEF71E0872D0E9496
:101E500099038091080482FF04C08091080481FDE9
:101E600006C0511004C066246394670C542C809102
:101E7000753B9091763BCA50DF4FA881B981C65F10
:101E8000D0408A1B9B0B8135910508F4A9C05520D1
:101E900009F4A6C0E091753BF091763BCA50DF4F44
:101EA000E883F983C65FD04020E040E060E0862D03
:101EB00090E00E949E01F9E0F61508F054C026EF6C
:101EC000620E3FE4361538F024E640E060E0862DEF
:101ED00090E00E949E01CC50DF4FC880C45FD0408C
:101EE000C150DF4FD880CF5FD040CE50DF4FA880A9
:101EF000B980C25FD04000E0862C912CCB51DF4FDF
:101F00004881C55ED040041778F5D5018D919D912B
:101F10005D018E0D9F1D8815990501F5F6018081E3
:101F20000817E1F00083CD51DF4FF881C35ED04048
:101F3000F150CD51DF4FF883C35ED0408091653BB7
:101F40009091663B01968093653B9093663B20E0C1
:101F500040E060E0C4010E949E01512C0F5F2FEF12
:101F6000C21AD20ACBCF512C862D90E08215930550
:101F700031F091012F5F3F4F8217930739F582E0CF
:101F800080931D3A8091653B9091663B03968093C8
:101F9000653B9093663BD12CC12C20E040E060E093
:101FA000C6010E949E013FEFC31AD30A49E0C4163E
:101FB000D10499F780E29EE40E945803C551DF4F97
:101FC0001882CB5ED04039E0232E312C552009F405
:101FD000C6C124E640E060E0862D90E00E949E01AC
:101FE0008091753B9091763BC850DF4FA881B981B5
:101FF000C85FD0408A1B9B0B853B910510F1C951EE
:10200000DF4FB881C75ED040BF34D8F41436C8F46F
:10201000E091753BF091763BC850DF4FE883F98340
:10202000C85FD04020E040E060E0812F90E00E9457
:102030009E01165F20E046E464E6812F90E00E9456
:102040009E01711609F48FC1212F30E0872D90E099
:10205000AC014F5F5F4F2417350709F484C1029626
:102060002817390709F47FC1C951DF4FF881C75ECE
:10207000D040F03508F07EC10E94451A28E833E1CF
:1020800040E050E00E94B61A643F7140810591051E
:1020900029F4C551DF4F4882CB5ED0408091753B1B
:1020A0009091763BC650DF4FA881B981CA5FD0407E
:1020B0008A1B9B0B803A910510F1C551DF4FB88107
:1020C000CB5ED040BB23D9F0E091753BF091763BDD
:1020D000C650DF4FE883F983CA5FD04037FE90C116
:1020E00020E040E060E0C10101960E949E01C551E0
:1020F000DF4F1882CB5ED04099E0292E312CCD5194
:10210000DF4F3881C35ED040343060F4E32FF0E01D
:10211000EE0FFF1FE953FD4F8591949180936D3B26
:1021200090936E3B8091753B9091763BC450DF4F0E
:1021300048815981CC5FD040841B950B20916D3B29
:1021400030916E3B28173907C0F58091753B90910F
:10215000763BC450DF4F88839983CC5FD040C25018
:10216000DF4FE882CE5FD040C751DF4F9881C95E14
:10217000D0409F5FC751DF4F9883C95ED04082E354
:1021800090E00E945803C051DF4FA881C05FD0404B
:10219000AA2309F44CC1BFEFEB1AFB0AC751DF4F6A
:1021A000F881C95ED040F63140F02AE0E20EF11C21
:1021B000C751DF4F1882C95ED04028EE33E041E0BE
:1021C00060E080E00E94660481110E94E90680912F
:1021D000713B811130C18091653B9091663B883E97
:1021E000934030F047EE53E04093653B5093663B9D
:1021F000C151DF4F7882CF5ED040CD51DF4FF881A3
:10220000C35ED040FF2309F416C180911D3A882394
:1022100009F411C1CE50DF4F88809980C25FD04051
:10222000CC50DF4F2881C45FD040C351DF4F28839B
:10223000CD5ED040C150DF4F3881CF5FD040C2511A
:10224000DF4F3883CE5ED04000E0C250DF4F588170
:10225000CE5FD040452F50E0C050DF4F48835983B8
:10226000C050D140CB51DF4F8881C55ED0400817A8
:1022700008F0CDCDC351DF4FA881B981CD5ED040EC
:102280008D91C351DF4FA883B983CD5ED04008172D
:1022900009F460C0F401C080D180C050DF4F2881B4
:1022A0003981C050D1402E153F0569F020E040E053
:1022B00060E0C050DF4F88819981C050D1408C0DC3
:1022C0009D1D0E949E015701AC0CBD1C20E040E00A
:1022D00064E6C5010E949E0190E080E0FC01E9599E
:1022E000FD4FE491EA151B0429F4C051DF4F188219
:1022F000C05FD040FC01E35AFD4FE491EA151B0496
:1023000029F4C051DF4F4882C05FD0400196893028
:10231000910521F70E94451A2CE231E040E050E09F
:102320000E94B61A663971058105910521F41436AB
:1023300010F01C2D1E0DC951DF4F3881C75ED040F3
:102340003A151B043CF44C2D4E0DC951DF4F488308
:10235000C75ED0400F5F52E0850E911C83CF66248C
:102360006394670C3DCEC951DF4F2881C75ED040D2
:102370002035B0F010921D3A20E040E060E0812F5F
:1023800090E00E949E0180911D3A26E0C22ED12C41
:10239000882361F080ED97E00E94580314E66CCE2C
:1023A00080911D3A815080931D3AE6CF80E69AEEE7
:1023B0000E94580300E020E040E06EEF71E0872DBE
:1023C0000E94990324E640E069EF71E0872D0E94A6
:1023D000990380E69AEE0E94580320E040E069EFFE
:1023E00071E0872D0E94990324E644E66EEF71E0C8
:1023F000872D0E94990331E0C31AD108B9F6CECFD8
:102400006101F1E0CF1AD10826E440E066E4C6019C
:102410000E949E0128E0C216D1043CF420E040E076
:1024200060E0C10101960E949E01160168CEE1E0C4
:10243000EE1AF108B3CE0E949C068091753B9091F4
:10244000763B8093733B9093743BCD51DF4F588123
:10245000C35ED04051111EC080911E3A8F5F8093A1
:102460001E3A9091673B9F5F9093673B993010F0C5
:102470001092673BE7ECF2E08F3008F043C0259103
:1024800034919FE0899F20193109112420936D3BDD
:1024900030936E3B80911D3A81112BC0E7ECF2E046
:1024A0008591949180936D3B90936E3B1092673B26
:1024B00082E080931D3A81E080931E3A8091653BD3
:1024C0009091663B883E934030F087EE93E0809396
:1024D000653B9093663B65E08091653B9091663BE0
:1024E0000E9424081092653B1092663B81E0809325
:1024F0001E3ACE5FDE4F28813981C250D1402DBFB8
:102500003EBFC1CA259134912A5F310920936D3BAA
:1025100030936E3B843608F4BDCF00E020E044E603
:1025200061E572E084E10E94990320E044E66CE4F6
:1025300072E087E10E94990320E044E660E472E0E3
:102540008AE10E94990381E08093713BAFEFB3ED84
:10255000E0E3A150B040E040E1F700C000009ACFB6
:102560004FE152E0C751DF4F48835983C95ED040E5
:10257000AE014F5F5F4F2AE090E080E0FC01EE0F7C
:10258000FF1FE40FF51F1082118201968A3091051A
:10259000A9F721504C5E5F4F2111EECFCE0101967D
:1025A0006C01F12CE12CF701EB5EFD4F849190E082
:1025B000D6018D939C93F701E55FFD4FE4910E2FBB
:1025C00010E0F601028B138B20E540E060E00E94F2
:1025D0009E0120E540E060E0C8010E949E01FFEFFF
:1025E000EF1AFF0A24E1C20ED11C3AE0E316F1040F
:1025F000D1F6512CCB51DF4F18821982C55ED040E5
:10260000BAEF6B2E77247A941AEFE12EFF24FA9416
:102610004EE551E0CD51DF4F48835983C35ED04032
:10262000C951DF4F18821982C75ED04000E0C55102
:10263000DF4F1882CB5ED04021E041E063E080E0D4
:102640000E94D402182FC551DF4F8881CB5ED04045
:1026500054E0859FF0011124E10FF11DEE0FFF1FE3
:10266000E454F94420803180101721F088E290E092
:102670000E9458038091753B9091763BC951DF4F82
:10268000A881B981C75ED0408A1B9B0BCD51DF4F1B
:10269000E881F981C35ED040E817F90798F4F3E6C2
:1026A000EF16F1047CF451100DC02091753B309170
:1026B000763BC951DF4F28833983C75ED0403AE06B
:1026C000E30EF11C512CB42CC42C41E0C351DF4F5C
:1026D0004883CD5ED040DD24D394F1018491C35171
:1026E000DF4F2881CD5ED040281708F068C0AE01CA
:1026F0004F5F5F4F4A015AE0C151DF4F5883CF5EB1
:10270000D040E20FF11D30E020E06491A70141507C
:102710005109C901880F991F880D991DDC018D9100
:102720009C91640F752F711D6817790709F4B12CFE
:10273000A490B7016F5F7F4F6A0D711D86179707D1
:1027400009F4EBC5101709F4EBC5C11008C064917A
:102750006E0D7F2D711DC12C8617970771F1B11079
:102760000AC044914E0D5F2D511D8417950719F431
:10277000BFEFEB1AFB0A2F5F3F4F2A30310509F0FC
:10278000C4CFC151DF4F2881CF5ED0402150C1510D
:10279000DF4F2883CF5ED04034E1830E911C21119E
:1027A000B2CFC351DF4F4881CD5ED0404F5FC351A0
:1027B000DF4F4883CD5ED04090CF7A01D0CFDD206F
:1027C00009F436C1101709F4C6C557E0251652E0C2
:1027D000350609F0C5C5BB2019F081E0E81AF108FB
:1027E00000E020E040E0C751DF4F68817981C95E99
:1027F000D040862D0E94990320E540E0B1018E2D46
:102800000E949903C751DF4F28823982C95ED040A8
:102810003701552009F431C18091080482FF2DC190
:102820008091080481FF29C186E990E00E94580345
:102830000AE0F1018491D81608F035C0ED0DF11DC4
:1028400084912491260D860D972D911D6AE070E0EC
:102850000AD77727069FC001079F900D112440E0FB
:10286000322F341B4817190614F44F5FF9CF8491A7
:10287000860D972D911D069FF001079FF00D1124E5
:10288000E30FF11DEE0FFF1F21E030E02C0F3D1F85
:10289000E20FF31F8083918320E040E060E50E9417
:1028A0009E01D394C6CF03E06E0135EBC30ED11C5D
:1028B000712C7601952C48E0842E772009F1D70100
:1028C00012968D919C910097D9F05C01BAE0AB0E05
:1028D000B11CF701A68AB78A20E040E060E00E94C0
:1028E0009E0180E395E70E94580320E540E060E008
:1028F000C5010E949E01D70112961D921C9213974A
:10290000F70182819381892B09F4912C8A94F2E05A
:10291000EF0EF11C8110D1CF9920B1F1CD51DF4FD5
:1029200028813981C35ED0402739310540F02A50D3
:102930003109CD51DF4F28833983C35ED040CB515D
:10294000DF4F48815981C55ED0404F5F5F4FCB510B
:10295000DF4F48835983C55ED040760152E0E50ED3
:10296000F11C38E0B32E20E040E060E0D7018D910B
:102970009D917D010E949E01F70132971082118284
:10298000BA94B110F0CF792CB4E1CB1AD108CF5161
:10299000DF4FE881F981C15ED040EC15FD0509F0FB
:1029A00088CF015009F080CF70D525E030E040E0BD
:1029B00050E0DCD5C551DF4F6883CB5ED0409AEF45
:1029C000692E77247A942AEFE22EFF24FA9428EED7
:1029D00033E041E060E080E00E946604882311F16A
:1029E0000E94E906AE014F5F5F4F5A010AE0D12C09
:1029F000C12CF601EE0FFF1FEA0DFB1D20E540E0A4
:102A000060E0808191810E949E015FEFC51AD50A26
:102A10008AE0C816D10469F7015094E1A90EB11CEF
:102A20000111E5CF012F8091713B882309F404CE79
:102A30008091713B811127C803E610E020E040E05F
:102A400060E5C8010E949E01AFE0B7E21197F1F77F
:102A500000C000000150110989F7CB51DF4F888178
:102A60009981C55ED040883EB3E09B0710F087EEA9
:102A700093E067E00E94240806C873011614170447
:102A80000CF0A5CF28EC30E040E060E081E00E944F
:102A90006604882329F0BB2019F0F1E0EF1AF10851
:102AA00028EC30E040E061E080E00E94660488238A
:102AB00009F48DCFCC2009F48ACF2FEFE21AF20A65
:102AC00086CF20E044E660E085E390E00E949E012E
:102AD000EFEFF9E628E1E150F0402040E1F700C0D7
:102AE0000000F12CE12CB9E05B2E18ECC12ED12CAA
:102AF000712C612C912C812C00E015E3312CE32DFD
:102B0000F0E0EE0FFF1FEC5DFD4FA590B490A0929A
:102B10006B3BB0926C3B143090F024E630E040E028
:102B200061E081E00E946604882349F08091753B52
:102B30009091763B1A5086E190E00E94580320E085
:102B400044E660E0812F90E00E949E01101739F06A
:102B500020E040E060E0802F90E00E949E018091A4
:102B6000753B9091763B881999098739910508F44E
:102B70006FC01D3508F06CC08090753B9090763B1F
:102B80007AE0472E410E8091753B9091763B8619F5
:102B90009709C816D90670F56090753B7090763B22
:102BA00000E020E044E6B501852D0E94990339E05C
:102BB000531609F44FC020E040E0B50181E0850DD7
:102BC0000E949903511046C020E040E0B50180E02A
:102BD0000E9499035AD425E030E040E050E0C6D48A
:102BE000362E69E0562E93E3C916D10418F0A1E001
:102BF000CA1AD10880916B3B90916C3BFC013996CD
:102C000024913196E491B3E05B1232C0421630F069
:102C1000F0E03E964E161F0659F154F188EC90E014
:102C20000E945803B12C28EE33E041E060E080E0E0
:102C30000E94660481110E94E9068091713B811116
:102C40000C94430D012FBB2009F4B2C3142D57CFB0
:102C5000412E99CF5A9442E05412C5CF58EEE51652
:102C600053E0F50608F0BFCF82E0E80EF11CBBCFC1
:102C7000BB24B394D8CF0E94BB06EDB7FEB7CC50AF
:102C8000DF4FE883F983C45FD040F2E080E0EF12C9
:102C900001C084E19E0127533F4F6901AE014F5FA0
:102CA0005F4F5A0101E010E0A82FB0E0CE50DF4F97
:102CB000A883B983C25FD04043E6942EF801EB5855
:102CC000FD4F8491F50181935F0120E040E064E6CF
:102CD000CE50DF4FA881B981C25FD040A80FB11D8F
:102CE000CD010E949E01F60191926F010F5F1F4F6F
:102CF0000931110519F780911E3A843108F09FC1FE
:102D0000F1E0EF12A5C190E0880F991F20E530E0B7
:102D1000A901481B590BC051DF4F48835983C05F3D
:102D2000D04062E08EE590E00E94BA0220E040E5EB
:102D300060E585E590E00E949E01A12CBF2CEF2C60
:102D4000412CB1E0CD51DF4FB883C35ED040C551B7
:102D5000DF4F18821982CB5ED040C751DF4F1882F7
:102D60001982C95ED040312C212CCC24C39415E5A6
:102D7000E5E5C351DF4FE883CD5ED040512C24E020
:102D8000D22E912CF8E1CB51DF4FF883C55ED040B5
:102D9000CC2009F410C2CB51DF4F2881C55ED04052
:102DA000222309F408C222E040E061E68AE50E949D
:102DB000D402C151DF4F8883CF5ED04000E0891537
:102DC00009F451C120E040E061E772E0892D0E94E2
:102DD0009903411018C0AA20B1F020E040E060E063
:102DE000812F90E00E949E0122E040E061E68AE5AA
:102DF0000E94D40217EF180F20E040E560E5812F14
:102E000090E00E949E0130916A3BC951DF4F3883A8
:102E1000C75ED040323021F528EC30E040E060E081
:102E200081E00E946604882311F0D110DA9428EC26
:102E300030E040E061E080E00E946604882321F0F9
:102E400046E04D1508F0D394D51409F414C100E000
:102E500020E040E061E772E0852D0E9499035D2C3F
:102E600028EC30E040E061E081E00E9466048823C5
:102E700021F0AA2011F04A2CA12C8091753B909151
:102E8000763B82199309C051DF4FA881B981C05F99
:102E9000D040A817B90708F086C0442009F483C0C1
:102EA0002090753B3090763B20E040E060E0C351DD
:102EB000DF4FB881CD5ED0408B2F90E00E949E0105
:102EC00020E040E560E5812F90E00E949E010AE04D
:102ED000CD51DF4FA881C35ED0400A1BEE2039F0F0
:102EE00006EFCD51DF4FE881C35ED0400E1B010FCE
:102EF0009E0127533F4F4901AE014F5F5F4FC351C2
:102F0000DF4F48835983CD5ED040A12C602E712CB9
:102F1000C351DF4FA881B981CD5ED0408D91C3519F
:102F2000DF4FA883B983CD5ED040CE50DF4FE8811C
:102F3000F981C25FD040E80FF11D6E167F0609F0DF
:102F4000AEC0D4018C91A81609F4A9C0AC92CB51A3
:102F5000DF4FB881C55ED040B150CB51DF4FB88351
:102F6000C55ED0408091683B9091693B019680930B
:102F7000683B9093693BE1E0EE2686E990E00E9491
:102F8000580320E040E060E0C3010E949E01B12CA4
:102F9000A394F8E1AF1276C0A12CC351DF4F188380
:102FA000CD5ED040102F912C812CBB2049F1F40133
:102FB000E959FD4FE491E1130BC082E390E00E94D8
:102FC0005803B12C21E0CD51DF4F2883C35ED040A0
:102FD000F401E35AFD4FE4911E130BC082E390E02D
:102FE0000E945803B12C3FEFCD51DF4F3883C35EB1
:102FF000D0404FEF841A940A5AE085169104A9F63E
:103000001A3008F04EC0C951DF4F8881C75ED040EA
:10301000813009F462C08091683B9091693BC7514F
:10302000DF4FA881B981C95ED040A80FB91FC75131
:10303000DF4FA883B983C95ED040C12C51C080E561
:1030400090E0C051DF4F88839983C05FD04069CE44
:10305000A0E5B0E0C051DF4FA883B983C05FD04086
:1030600060CEA02E95CE24E640E061E772E0892D87
:103070000E949903C8CE04E620E040E061E772E0D8
:103080008D2DEBCE5FEF851A950AB11041CFA12CA3
:10309000C351DF4F1883CD5ED040102FB1CFB42C79
:1030A00077CF1A35E8F0C951DF4FB881C75ED040FD
:1030B000B23019F68091683B9091693BC551DF4F62
:1030C000E881F981CB5ED040E80FF91FC551DF4F91
:1030D000E883F983CB5ED040B0CFE12CCC24C394FD
:1030E000A11014C0212F30E0C151DF4FF881CF5E15
:1030F000D0408F2F90E0AC014A505109241735077A
:1031000009F03BC1EF2C8CE3282E312C0F2D21C070
:1031100001111FC000E024173507B1F48A3031F0E7
:103120008C3009F4D3C00F2DE12C0BC00F2DE12CF6
:103130001A3009F4D6C0A1E0CD51DF4FA883C35E99
:10314000D0409CE3292E312C8F5F4F5F5F4F8D3035
:10315000F9F628EE33E041E060E080E00E9466048A
:103160008823F9F00E94E9069E012F5F3F4F490135
:10317000AE0147535F4F3A01A12CD3018D913D0120
:103180008A1541F0F401808120E040E064E690E09F
:103190000E949E01A394FFEF8F1A9F0A28E1A212BA
:1031A000ECCFC151DF4F9880CF5ED0408091713B12
:1031B000882309F456CF0E949C06CB51DF4F3881FB
:1031C000C55ED040311126C080911E3A8F5F80933A
:1031D0001E3A8436F8F000E020E044E661E572E053
:1031E00084E10E94990320E044E66CE472E087E108
:1031F0000E94990320E044E660E472E08AE10E94C4
:1032000099034FEF53ED80E3415050408040E1F788
:1032100000C00000C11003C081E080931E3A80917D
:10322000683B9091693B883E934030F087EE93E095
:103230008093683B9093693B80916A3B823089F52B
:1032400000E020E044E66EE872E080E00E9499032E
:10325000C751DF4FE881F981C95ED040C551DF4FCA
:1032600028813981CB5ED04004E62E173F0708F055
:1032700046C020E040E06AE372E083E00E949903E8
:10328000C751DF4F88819981C95ED0400E942B04CD
:103290003FEF49E658E1315040405040E1F700C06F
:1032A00000006BE08091683B9091693B0E9424088C
:1032B0001092683B1092693BCC50DF4F8881998116
:1032C000C45FD0408DBF9EBF0C94430D0F2DE12CE9
:1032D000133171F0BFEFCD51DF4FB883C35ED040E3
:1032E00030CFEFEFCD51DF4FE883C35ED04029CF21
:1032F000F1E0CD51DF4FF883C35ED04022CF20E014
:1033000040E06EE272E083E00E949903C551DF4F16
:1033100088819981CB5ED040B9CFC12C101317CAD8
:103320006491A701465F5F4F460F511D84179507B3
:1033300041F084918E0D9F2D911D8A3591050CF4DD
:103340001ACA84918E0D9F2D911D542C09970CF053
:1033500012CAD12C16CAE614F70409F45ACA40CA94
:1033600093E0291692E0390609F03ACACC2009F414
:1033700037CA9FEFE91AF90A33CAAC01495051091B
:103380004217530709F4BECE08978217930709F432
:10339000B9CE4D2D50E0465F5F4F8AE0C951DF4FF7
:1033A0009881C75ED040923009F4B4CE00E0D1CE0F
:1033B00069E0C7015FCBE4E8FBE3158281E39AE3B0
:1033C00086839783148615861686178681E0838701
:1033D0008087118692E092872CE231E0228333834A
:1033E00024E630E02083318397E0948324E234E0C4
:1033F000208B318B828B08958F929F92AF92BF92D8
:10340000CF92DF92EF92FF92CF93DF93EC0168812E
:1034100079818A819B81611571058105910521F46E
:1034200064E279ED8BE597E02DE133EF41E050E088
:103430009DD049015A019B01AC01A7EAB1E4B2D089
:103440006B017C01ACEEB4EFA5019401B7D0C60EC0
:10345000D71EE81EF91EF7FE06C081E0C81AD10883
:10346000E10880E8F80AC882D982EA82FB82C701B3
:10347000B6019F77DF91CF91FF90EF90DF90CF90D3
:10348000BF90AF909F908F9008958F929F92AF9230
:10349000BF92CF92DF92EF92FF926091213A7091AA
:1034A000223A8091233A9091243A61157105810561
:1034B000910521F464E279ED8BE597E02DE133EF9E
:1034C00041E050E053D049015A019B01AC01A7EA09
:1034D000B1E468D06B017C01ACEEB4EFA5019401BE
:1034E0006DD0C60ED71EE81EF91EF7FE06C081E09D
:1034F000C81AD108E10880E8F80AC092213AD092AF
:10350000223AE092233AF092243AC701B6019F771B
:10351000FF90EF90DF90CF90BF90AF909F908F90F3
:1035200008956093213A7093223A8093233A9093BE
:10353000243A089503D0808199270895FC01E05032
:10354000FC4E0895262FAF93BF93E0E0F0E1328167
:1035500031FDFDCFDC01A050BC4E2C933DE934BFC2
:1035600023E020830196BF91AF910895052E97FB2C
:1035700016F400940FD057FD05D024D007FC02D0DC
:1035800046F408C050954095309521953F4F4F4FD8
:103590005F4F089590958095709561957F4F8F4FFF
:1035A0009F4F089531D0A59F900DB49F900DA49F7B
:1035B000800D911D11240895B7FFF4CFF3DF821B16
:1035C000930B0895A1E21A2EAA1BBB1BFD010DC08F
:1035D000AA1FBB1FEE1FFF1FA217B307E407F507C3
:1035E00020F0A21BB30BE40BF50B661F771F881F9F
:1035F000991F1A9469F760957095809590959B0135
:10360000AC01BD01CF010895A29FB001B39FC001DD
:10361000A39F700D811D1124911DB29F700D811DFE
:103620001124911D0895991B79E004C0991F9617E4
:1036300008F0961B881F7A95C9F780950895AA1BF4
:10364000BB1B51E107C0AA1FBB1FA617B70710F08D
:10365000A61BB70B881F991F5A95A9F780959095BF
:10366000BC01CD01089597FB072E16F4009406D0F7
:1036700077FD08D0E4DF07FC05D03EF490958195F6
:103680009F4F0895709561957F4F0895EE0FFF1F2E
:103690000590F491E02D0994DC0101C06D93415037
:0A36A0005040E0F70895F894FFCFC2
:1036AA00C400BA00B000A800A00098008E008500EF
:1036BA007C00FA00F500F0001F02EB00EB00EB00C3
:1036CA00EB000302070203020702E600E100DC0046
:1036DA00D700D200CD00D200CD0000FF01000100CA
:0A36EA0000FFFF0000010001FF00D7
:1036F40001010101000000000001000001000000C0
:1037040000000101010100000000000100000100AF
:10371400000000000101010101010000000100009E
:10372400010101010001010000010000010001018B
:10373400000001010101000101000001000001007D
:10374400010101010101010001000001000001006B
:10375400010100010001000000010001010001005D
:10376400010001000101000100010001000100014C
:10377400000001000101000100010001000101013C
:103784000100010100010100010101000101010129
:10379400000101000101000101000101000101001B
:1037A400010100010001000101000100010100010B
:1037B40001000101000101010001010000010001FB
:1037C40000000100000001000100000100000001F0
:1037D40000000101010000000100010000010000DF
:1037E40001000101010101000001010101000001CA
:1037F40000000100010100000101010100010001BC
:1038040001000000000000010000000000000000B2
:1038140000010000000000000000000100000000A2
:10382400000001010000000000000001010101018D
:10383400000001000001000100010000000001007F
:10384400010100000100000100010001000100006D
:10385400010001000100010001010000010100005C
:10386400000100010100000000000101000001004E
:10387400000000010001000001000000010001013E
:10388400010000000000010001010001010101002C
:103894000101000101000001010101000101010118
:1038A400010001010001010000010001010100010A
:1038B40001010001000101010100010000000100FB
:1038C40001010001000100010001010001000100EB
:1038D40001000101000100010001000100010001DB
:1038E40000000101010101000100000100000100CC
:1038F40001010000010101010001010000010000BB
:1039040001000101010101010101010001020101A4
:063914003C010000000070
:00000001FF
